{
  "_format": "hh-sol-artifact-1",
  "contractName": "EntryPoint",
  "sourceName": "contracts/core/EntryPoint.sol",
  "abi": [
    {
      "inputs": [
        {
          "internalType": "uint256",
          "name": "opIndex",
          "type": "uint256"
        },
        {
          "internalType": "string",
          "name": "reason",
          "type": "string"
        }
      ],
      "name": "FailedOp",
      "type": "error"
    },
    {
      "inputs": [
        {
          "internalType": "address",
          "name": "sender",
          "type": "address"
        }
      ],
      "name": "SenderAddressResult",
      "type": "error"
    },
    {
      "inputs": [
        {
          "internalType": "address",
          "name": "aggregator",
          "type": "address"
        }
      ],
      "name": "SignatureValidationFailed",
      "type": "error"
    },
    {
      "anonymous": false,
      "inputs": [
        {
          "indexed": true,
          "internalType": "bytes32",
          "name": "userOpHash",
          "type": "bytes32"
        },
        {
          "indexed": true,
          "internalType": "address",
          "name": "sender",
          "type": "address"
        },
        {
          "indexed": false,
          "internalType": "address",
          "name": "factory",
          "type": "address"
        },
        {
          "indexed": false,
          "internalType": "address",
          "name": "paymaster",
          "type": "address"
        }
      ],
      "name": "AccountDeployed",
      "type": "event"
    },
    {
      "anonymous": false,
      "inputs": [],
      "name": "BeforeExecution",
      "type": "event"
    },
    {
      "anonymous": false,
      "inputs": [
        {
          "indexed": true,
          "internalType": "address",
          "name": "account",
          "type": "address"
        },
        {
          "indexed": false,
          "internalType": "uint256",
          "name": "totalDeposit",
          "type": "uint256"
        }
      ],
      "name": "Deposited",
      "type": "event"
    },
    {
      "anonymous": false,
      "inputs": [
        {
          "indexed": true,
          "internalType": "address",
          "name": "aggregator",
          "type": "address"
        }
      ],
      "name": "SignatureAggregatorChanged",
      "type": "event"
    },
    {
      "anonymous": false,
      "inputs": [
        {
          "indexed": true,
          "internalType": "address",
          "name": "account",
          "type": "address"
        },
        {
          "indexed": false,
          "internalType": "uint256",
          "name": "totalStaked",
          "type": "uint256"
        },
        {
          "indexed": false,
          "internalType": "uint256",
          "name": "unstakeDelaySec",
          "type": "uint256"
        }
      ],
      "name": "StakeLocked",
      "type": "event"
    },
    {
      "anonymous": false,
      "inputs": [
        {
          "indexed": true,
          "internalType": "address",
          "name": "account",
          "type": "address"
        },
        {
          "indexed": false,
          "internalType": "uint256",
          "name": "withdrawTime",
          "type": "uint256"
        }
      ],
      "name": "StakeUnlocked",
      "type": "event"
    },
    {
      "anonymous": false,
      "inputs": [
        {
          "indexed": true,
          "internalType": "address",
          "name": "account",
          "type": "address"
        },
        {
          "indexed": false,
          "internalType": "address",
          "name": "withdrawAddress",
          "type": "address"
        },
        {
          "indexed": false,
          "internalType": "uint256",
          "name": "amount",
          "type": "uint256"
        }
      ],
      "name": "StakeWithdrawn",
      "type": "event"
    },
    {
      "anonymous": false,
      "inputs": [
        {
          "indexed": true,
          "internalType": "bytes32",
          "name": "userOpHash",
          "type": "bytes32"
        },
        {
          "indexed": true,
          "internalType": "address",
          "name": "sender",
          "type": "address"
        },
        {
          "indexed": true,
          "internalType": "address",
          "name": "paymaster",
          "type": "address"
        },
        {
          "indexed": false,
          "internalType": "uint256",
          "name": "nonce",
          "type": "uint256"
        },
        {
          "indexed": false,
          "internalType": "bool",
          "name": "success",
          "type": "bool"
        },
        {
          "indexed": false,
          "internalType": "uint256",
          "name": "actualGasCost",
          "type": "uint256"
        },
        {
          "indexed": false,
          "internalType": "uint256",
          "name": "actualGasUsed",
          "type": "uint256"
        }
      ],
      "name": "UserOperationEvent",
      "type": "event"
    },
    {
      "anonymous": false,
      "inputs": [
        {
          "indexed": true,
          "internalType": "bytes32",
          "name": "userOpHash",
          "type": "bytes32"
        },
        {
          "indexed": true,
          "internalType": "address",
          "name": "sender",
          "type": "address"
        },
        {
          "indexed": false,
          "internalType": "uint256",
          "name": "nonce",
          "type": "uint256"
        },
        {
          "indexed": false,
          "internalType": "bytes",
          "name": "revertReason",
          "type": "bytes"
        }
      ],
      "name": "UserOperationRevertReason",
      "type": "event"
    },
    {
      "anonymous": false,
      "inputs": [
        {
          "indexed": true,
          "internalType": "address",
          "name": "account",
          "type": "address"
        },
        {
          "indexed": false,
          "internalType": "address",
          "name": "withdrawAddress",
          "type": "address"
        },
        {
          "indexed": false,
          "internalType": "uint256",
          "name": "amount",
          "type": "uint256"
        }
      ],
      "name": "Withdrawn",
      "type": "event"
    },
    {
      "inputs": [],
      "name": "SIG_VALIDATION_FAILED",
      "outputs": [
        {
          "internalType": "uint256",
          "name": "",
          "type": "uint256"
        }
      ],
      "stateMutability": "view",
      "type": "function"
    },
    {
      "inputs": [
        {
          "internalType": "uint32",
          "name": "unstakeDelaySec",
          "type": "uint32"
        }
      ],
      "name": "addStake",
      "outputs": [],
      "stateMutability": "payable",
      "type": "function"
    },
    {
      "inputs": [
        {
          "internalType": "address",
          "name": "account",
          "type": "address"
        }
      ],
      "name": "balanceOf",
      "outputs": [
        {
          "internalType": "uint256",
          "name": "",
          "type": "uint256"
        }
      ],
      "stateMutability": "view",
      "type": "function"
    },
    {
      "inputs": [
        {
          "internalType": "address",
          "name": "account",
          "type": "address"
        }
      ],
      "name": "depositTo",
      "outputs": [],
      "stateMutability": "payable",
      "type": "function"
    },
    {
      "inputs": [
        {
          "internalType": "address",
          "name": "",
          "type": "address"
        }
      ],
      "name": "deposits",
      "outputs": [
        {
          "internalType": "uint112",
          "name": "deposit",
          "type": "uint112"
        },
        {
          "internalType": "bool",
          "name": "staked",
          "type": "bool"
        },
        {
          "internalType": "uint112",
          "name": "stake",
          "type": "uint112"
        },
        {
          "internalType": "uint32",
          "name": "unstakeDelaySec",
          "type": "uint32"
        },
        {
          "internalType": "uint48",
          "name": "withdrawTime",
          "type": "uint48"
        }
      ],
      "stateMutability": "view",
      "type": "function"
    },
    {
      "inputs": [
        {
          "internalType": "address",
          "name": "account",
          "type": "address"
        }
      ],
      "name": "getDepositInfo",
      "outputs": [
        {
          "components": [
            {
              "internalType": "uint112",
              "name": "deposit",
              "type": "uint112"
            },
            {
              "internalType": "bool",
              "name": "staked",
              "type": "bool"
            },
            {
              "internalType": "uint112",
              "name": "stake",
              "type": "uint112"
            },
            {
              "internalType": "uint32",
              "name": "unstakeDelaySec",
              "type": "uint32"
            },
            {
              "internalType": "uint48",
              "name": "withdrawTime",
              "type": "uint48"
            }
          ],
          "internalType": "struct IStakeManager.DepositInfo",
          "name": "info",
          "type": "tuple"
        }
      ],
      "stateMutability": "view",
      "type": "function"
    },
    {
      "inputs": [
        {
          "internalType": "address",
          "name": "sender",
          "type": "address"
        },
        {
          "internalType": "uint192",
          "name": "key",
          "type": "uint192"
        }
      ],
      "name": "getNonce",
      "outputs": [
        {
          "internalType": "uint256",
          "name": "nonce",
          "type": "uint256"
        }
      ],
      "stateMutability": "view",
      "type": "function"
    },
    {
      "inputs": [
        {
          "internalType": "bytes",
          "name": "initCode",
          "type": "bytes"
        }
      ],
      "name": "getSenderAddress",
      "outputs": [],
      "stateMutability": "nonpayable",
      "type": "function"
    },
    {
      "inputs": [
        {
          "components": [
            {
              "internalType": "address",
              "name": "sender",
              "type": "address"
            },
            {
              "internalType": "uint256",
              "name": "nonce",
              "type": "uint256"
            },
            {
              "internalType": "bytes",
              "name": "initCode",
              "type": "bytes"
            },
            {
              "internalType": "bytes",
              "name": "callData",
              "type": "bytes"
            },
            {
              "internalType": "uint256",
              "name": "callGasLimit",
              "type": "uint256"
            },
            {
              "internalType": "uint256",
              "name": "verificationGasLimit",
              "type": "uint256"
            },
            {
              "internalType": "uint256",
              "name": "preVerificationGas",
              "type": "uint256"
            },
            {
              "internalType": "uint256",
              "name": "maxFeePerGas",
              "type": "uint256"
            },
            {
              "internalType": "uint256",
              "name": "maxPriorityFeePerGas",
              "type": "uint256"
            },
            {
              "internalType": "bytes",
              "name": "paymasterAndData",
              "type": "bytes"
            },
            {
              "internalType": "bytes",
              "name": "signature",
              "type": "bytes"
            }
          ],
          "internalType": "struct UserOperation",
          "name": "userOp",
          "type": "tuple"
        }
      ],
      "name": "getUserOpHash",
      "outputs": [
        {
          "internalType": "bytes32",
          "name": "",
          "type": "bytes32"
        }
      ],
      "stateMutability": "view",
      "type": "function"
    },
    {
      "inputs": [
        {
          "components": [
            {
              "components": [
                {
                  "internalType": "address",
                  "name": "sender",
                  "type": "address"
                },
                {
                  "internalType": "uint256",
                  "name": "nonce",
                  "type": "uint256"
                },
                {
                  "internalType": "bytes",
                  "name": "initCode",
                  "type": "bytes"
                },
                {
                  "internalType": "bytes",
                  "name": "callData",
                  "type": "bytes"
                },
                {
                  "internalType": "uint256",
                  "name": "callGasLimit",
                  "type": "uint256"
                },
                {
                  "internalType": "uint256",
                  "name": "verificationGasLimit",
                  "type": "uint256"
                },
                {
                  "internalType": "uint256",
                  "name": "preVerificationGas",
                  "type": "uint256"
                },
                {
                  "internalType": "uint256",
                  "name": "maxFeePerGas",
                  "type": "uint256"
                },
                {
                  "internalType": "uint256",
                  "name": "maxPriorityFeePerGas",
                  "type": "uint256"
                },
                {
                  "internalType": "bytes",
                  "name": "paymasterAndData",
                  "type": "bytes"
                },
                {
                  "internalType": "bytes",
                  "name": "signature",
                  "type": "bytes"
                }
              ],
              "internalType": "struct UserOperation[]",
              "name": "userOps",
              "type": "tuple[]"
            },
            {
              "internalType": "contract IAggregator",
              "name": "aggregator",
              "type": "address"
            },
            {
              "internalType": "bytes",
              "name": "signature",
              "type": "bytes"
            }
          ],
          "internalType": "struct IEntryPoint.UserOpsPerAggregator[]",
          "name": "opsPerAggregator",
          "type": "tuple[]"
        },
        {
          "internalType": "address payable",
          "name": "beneficiary",
          "type": "address"
        }
      ],
      "name": "handleAggregatedOps",
      "outputs": [],
      "stateMutability": "nonpayable",
      "type": "function"
    },
    {
      "inputs": [
        {
          "components": [
            {
              "internalType": "address",
              "name": "sender",
              "type": "address"
            },
            {
              "internalType": "uint256",
              "name": "nonce",
              "type": "uint256"
            },
            {
              "internalType": "bytes",
              "name": "initCode",
              "type": "bytes"
            },
            {
              "internalType": "bytes",
              "name": "callData",
              "type": "bytes"
            },
            {
              "internalType": "uint256",
              "name": "callGasLimit",
              "type": "uint256"
            },
            {
              "internalType": "uint256",
              "name": "verificationGasLimit",
              "type": "uint256"
            },
            {
              "internalType": "uint256",
              "name": "preVerificationGas",
              "type": "uint256"
            },
            {
              "internalType": "uint256",
              "name": "maxFeePerGas",
              "type": "uint256"
            },
            {
              "internalType": "uint256",
              "name": "maxPriorityFeePerGas",
              "type": "uint256"
            },
            {
              "internalType": "bytes",
              "name": "paymasterAndData",
              "type": "bytes"
            },
            {
              "internalType": "bytes",
              "name": "signature",
              "type": "bytes"
            }
          ],
          "internalType": "struct UserOperation[]",
          "name": "ops",
          "type": "tuple[]"
        },
        {
          "internalType": "address payable",
          "name": "beneficiary",
          "type": "address"
        }
      ],
      "name": "handleOps",
      "outputs": [],
      "stateMutability": "nonpayable",
      "type": "function"
    },
    {
      "inputs": [
        {
          "internalType": "uint192",
          "name": "key",
          "type": "uint192"
        }
      ],
      "name": "incrementNonce",
      "outputs": [],
      "stateMutability": "nonpayable",
      "type": "function"
    },
    {
      "inputs": [
        {
          "internalType": "bytes",
          "name": "callData",
          "type": "bytes"
        },
        {
          "components": [
            {
              "components": [
                {
                  "internalType": "address",
                  "name": "sender",
                  "type": "address"
                },
                {
                  "internalType": "uint256",
                  "name": "nonce",
                  "type": "uint256"
                },
                {
                  "internalType": "uint256",
                  "name": "callGasLimit",
                  "type": "uint256"
                },
                {
                  "internalType": "uint256",
                  "name": "verificationGasLimit",
                  "type": "uint256"
                },
                {
                  "internalType": "uint256",
                  "name": "preVerificationGas",
                  "type": "uint256"
                },
                {
                  "internalType": "address",
                  "name": "paymaster",
                  "type": "address"
                },
                {
                  "internalType": "uint256",
                  "name": "maxFeePerGas",
                  "type": "uint256"
                },
                {
                  "internalType": "uint256",
                  "name": "maxPriorityFeePerGas",
                  "type": "uint256"
                }
              ],
              "internalType": "struct EntryPoint.MemoryUserOp",
              "name": "mUserOp",
              "type": "tuple"
            },
            {
              "internalType": "bytes32",
              "name": "userOpHash",
              "type": "bytes32"
            },
            {
              "internalType": "uint256",
              "name": "prefund",
              "type": "uint256"
            },
            {
              "internalType": "uint256",
              "name": "contextOffset",
              "type": "uint256"
            },
            {
              "internalType": "uint256",
              "name": "preOpGas",
              "type": "uint256"
            }
          ],
          "internalType": "struct EntryPoint.UserOpInfo",
          "name": "opInfo",
          "type": "tuple"
        },
        {
          "internalType": "bytes",
          "name": "context",
          "type": "bytes"
        }
      ],
      "name": "innerHandleOp",
      "outputs": [
        {
          "internalType": "uint256",
          "name": "actualGasCost",
          "type": "uint256"
        }
      ],
      "stateMutability": "nonpayable",
      "type": "function"
    },
    {
      "inputs": [
        {
          "internalType": "address",
          "name": "",
          "type": "address"
        },
        {
          "internalType": "uint192",
          "name": "",
          "type": "uint192"
        }
      ],
      "name": "nonceSequenceNumber",
      "outputs": [
        {
          "internalType": "uint256",
          "name": "",
          "type": "uint256"
        }
      ],
      "stateMutability": "view",
      "type": "function"
    },
    {
      "inputs": [
        {
          "internalType": "bytes4",
          "name": "interfaceId",
          "type": "bytes4"
        }
      ],
      "name": "supportsInterface",
      "outputs": [
        {
          "internalType": "bool",
          "name": "",
          "type": "bool"
        }
      ],
      "stateMutability": "view",
      "type": "function"
    },
    {
      "inputs": [],
      "name": "unlockStake",
      "outputs": [],
      "stateMutability": "nonpayable",
      "type": "function"
    },
    {
      "inputs": [
        {
          "internalType": "address payable",
          "name": "withdrawAddress",
          "type": "address"
        }
      ],
      "name": "withdrawStake",
      "outputs": [],
      "stateMutability": "nonpayable",
      "type": "function"
    },
    {
      "inputs": [
        {
          "internalType": "address payable",
          "name": "withdrawAddress",
          "type": "address"
        },
        {
          "internalType": "uint256",
          "name": "withdrawAmount",
          "type": "uint256"
        }
      ],
      "name": "withdrawTo",
      "outputs": [],
      "stateMutability": "nonpayable",
      "type": "function"
    },
    {
      "stateMutability": "payable",
      "type": "receive"
    }
  ],
  "bytecode": "0x608080604052346200008f57600160025561022c8181016001600160401b0381118382101762000079578291620047a7833903906000f080156200006d57600380546001600160a01b0319166001600160a01b03929092169190911790556040516147129081620000958239f35b6040513d6000823e3d90fd5b634e487b7160e01b600052604160045260246000fd5b600080fdfe60806040526004361015610023575b361561001957600080fd5b610021613fba565b005b60003560e01c806301ffc9a71461018b5780630396cb60146101825780630bd28e3b146101795780631b2e01b8146101705780631d732756146101675780631fad948c1461015e578063205c28781461015557806335567e1a1461014c5780634b1d7cf5146101435780635287ce121461013a57806370a08231146101315780638f41ec5a146101285780639b249f691461011f578063a619353114610116578063b760faf91461010d578063bb9fe6bf14610104578063c23a5cea146100fb5763fc7e286d0361000e576100f6611741565b61000e565b506100f66115a8565b506100f661142a565b506100f66113eb565b506100f6611384565b506100f6611258565b506100f661121d565b506100f6611198565b506100f6611048565b506100f6610cec565b506100f6610c27565b506100f6610a88565b506100f66109ae565b506100f66107df565b506100f661059f565b506100f66104bd565b506100f66102f0565b50346102eb5760207ffffffffffffffffffffffffffffffffffffffffffffffffffffffffffffffffc3601126102eb576004357fffffffff0000000000000000000000000000000000000000000000000000000081168091036102eb57807f98215d970000000000000000000000000000000000000000000000000000000061023f92149081156102c1575b8115610297575b811561026d575b8115610243575b5060405190151581529081906020820190565b0390f35b7f01ffc9a7000000000000000000000000000000000000000000000000000000009150143861022c565b7f3e84f0210000000000000000000000000000000000000000000000000000000081149150610225565b7fcf28ef97000000000000000000000000000000000000000000000000000000008114915061021e565b7f698d42210000000000000000000000000000000000000000000000000000000081149150610217565b600080fd5b5060207ffffffffffffffffffffffffffffffffffffffffffffffffffffffffffffffffc3601126102eb5760043563ffffffff81168082036102eb576104917fa5ae833d0bb1dcd632d98a8b70973e8516812898e19bf27b70071ebc8dc52c01916103ae61037e3373ffffffffffffffffffffffffffffffffffffffff166000526000602052604060002090565b9161038a811515614120565b6103a761039e600185015463ffffffff1690565b63ffffffff1690565b1115614185565b54926104736dffffffffffffffffffffffffffff946104316103d534888460781c16611d1c565b966103e18815156141ea565b6103ed8189111561424f565b610411816103f9610724565b941684906dffffffffffffffffffffffffffff169052565b6001602084015287166dffffffffffffffffffffffffffff166040830152565b63ffffffff831660608201526000608082015261046e3373ffffffffffffffffffffffffffffffffffffffff166000526000602052604060002090565b6142b4565b6040805194855263ffffffff90911660208501523393918291820190565b0390a2005b6024359077ffffffffffffffffffffffffffffffffffffffffffffffff821682036102eb57565b50346102eb5760207ffffffffffffffffffffffffffffffffffffffffffffffffffffffffffffffffc3601126102eb5760043577ffffffffffffffffffffffffffffffffffffffffffffffff811681036102eb5761054c9033600052600160205260406000209077ffffffffffffffffffffffffffffffffffffffffffffffff16600052602052604060002090565b6105568154611e9e565b9055005b73ffffffffffffffffffffffffffffffffffffffff8116036102eb57565b602435906105858261055a565b565b60c435906105858261055a565b35906105858261055a565b50346102eb5760407ffffffffffffffffffffffffffffffffffffffffffffffffffffffffffffffffc3601126102eb5760206106346004356105e08161055a565b73ffffffffffffffffffffffffffffffffffffffff6105fd610496565b91166000526001835260406000209077ffffffffffffffffffffffffffffffffffffffffffffffff16600052602052604060002090565b54604051908152f35b507f4e487b7100000000000000000000000000000000000000000000000000000000600052604160045260246000fd5b60a0810190811067ffffffffffffffff82111761068957604052565b61069161063d565b604052565b610100810190811067ffffffffffffffff82111761068957604052565b67ffffffffffffffff811161068957604052565b6060810190811067ffffffffffffffff82111761068957604052565b90601f7fffffffffffffffffffffffffffffffffffffffffffffffffffffffffffffffe0910116810190811067ffffffffffffffff82111761068957604052565b604051906105858261066d565b7fffffffffffffffffffffffffffffffffffffffffffffffffffffffffffffffe0601f60209267ffffffffffffffff811161076d575b01160190565b61077561063d565b610767565b92919261078682610731565b9161079460405193846106e3565b8294818452818301116102eb578281602093846000960137010152565b9181601f840112156102eb5782359167ffffffffffffffff83116102eb57602083818601950101116102eb57565b50346102eb576101c07ffffffffffffffffffffffffffffffffffffffffffffffffffffffffffffffffc3601126102eb5767ffffffffffffffff6004358181116102eb57366023820112156102eb5761084290369060248160040135910161077a565b907fffffffffffffffffffffffffffffffffffffffffffffffffffffffffffffffdc360161018081126102eb576101006040519161087f8361066d565b126102eb5760405161089081610696565b610898610578565b815260443560208201526064356040820152608435606082015260a43560808201526108c2610587565b60a082015260e43560c08201526101043560e082015281526101243560208201526101443560408201526101643560608201526101843560808201526101a4359182116102eb5761023f9261091e6109269336906004016107b1565b929091612274565b6040519081529081906020820190565b9060407ffffffffffffffffffffffffffffffffffffffffffffffffffffffffffffffffc8301126102eb5760043567ffffffffffffffff928382116102eb57806023830112156102eb5781600401359384116102eb5760248460051b830101116102eb5760240191906024356109ab8161055a565b90565b50346102eb576109bd36610936565b6109c8929192611981565b6109d18361181e565b60005b848110610a5157506000927fbb47ee3e183a558b1a2ff0874b079f3fc5478b7454eacf2bfc5af2ff5878f9728480a183915b858310610a2157610a178585611a1e565b6100216001600255565b909193600190610a47610a35878987611933565b610a3f8886611911565b519088611d29565b0194019190610a06565b80610a7f610a78610a66600194869896611911565b51610a72848a88611933565b846128e1565b9083612539565b019290926109d4565b50346102eb5760407ffffffffffffffffffffffffffffffffffffffffffffffffffffffffffffffffc3601126102eb57600435610ac48161055a565b6024359060009133835282602052604083206dffffffffffffffffffffffffffff81541692838311610bc957848373ffffffffffffffffffffffffffffffffffffffff829593610b6c8496610b33610b208798610bc69c611d07565b6dffffffffffffffffffffffffffff1690565b6dffffffffffffffffffffffffffff167fffffffffffffffffffffffffffffffffffff0000000000000000000000000000825416179055565b6040805173ffffffffffffffffffffffffffffffffffffffff831681526020810185905233917fd1c19fbcd4551a5edfb66d43d2e337c04837afda3482b42bdf569a8fccdae5fb91a2165af1610bc06119ee565b5061462b565b80f35b60646040517f08c379a000000000000000000000000000000000000000000000000000000000815260206004820152601960248201527f576974686472617720616d6f756e7420746f6f206c61726765000000000000006044820152fd5b50346102eb5760407ffffffffffffffffffffffffffffffffffffffffffffffffffffffffffffffffc3601126102eb576020600435610c658161055a565b73ffffffffffffffffffffffffffffffffffffffff610c82610496565b911660005260018252610cbd8160406000209077ffffffffffffffffffffffffffffffffffffffffffffffff16600052602052604060002090565b547fffffffffffffffffffffffffffffffffffffffffffffffff00000000000000006040519260401b16178152f35b50346102eb57610cfb36610936565b610d03611981565b6000805b838210610eea57610d18915061181e565b7fbb47ee3e183a558b1a2ff0874b079f3fc5478b7454eacf2bfc5af2ff5878f972600080a16000805b848110610e5057505060008093815b818110610d8757610a17868660007f575ff3acadd5ab348fe1855e217e0f3678f8d767d7494c9f9fefbee2e17cca4d8180a2611a1e565b610deb610d9582848a611ed8565b610dc0610da7610da760208401611f7a565b73ffffffffffffffffffffffffffffffffffffffff1690565b7f575ff3acadd5ab348fe1855e217e0f3678f8d767d7494c9f9fefbee2e17cca4d600080a280611f26565b906000915b808310610e0857505050610e0390611e9e565b610d50565b90919497610e43610e3d610e4992610e378c8b610e3082610e2a8e8b8d611933565b92611911565b5191611d29565b90611d1c565b99611e9e565b95611e9e565b9190610df0565b610e5b818688611ed8565b6020610e73610e6a8380611f26565b92909301611f7a565b9173ffffffffffffffffffffffffffffffffffffffff60009316905b828410610ea85750505050610ea390611e9e565b610d41565b90919294610e4381610edd85610ed6610ec4610ee2968d611911565b51610ed08c8b8a611933565b856128e1565b908b612751565b611e9e565b929190610e8f565b610ef5828587611ed8565b90610f008280611f26565b92610f10610da760208301611f7a565b9173ffffffffffffffffffffffffffffffffffffffff8316610f356001821415611f84565b610f56575b505050610f5091610f4a91611d1c565b91611e9e565b90610d07565b909592610f6f6040999693999895989788810190611b0f565b92908a3b156102eb5789938b918a5193849283927fe3563a4f00000000000000000000000000000000000000000000000000000000845260049e8f850193610fb69461211e565b03815a93600094fa908161102f575b506110195786517f86a9f75000000000000000000000000000000000000000000000000000000000815273ffffffffffffffffffffffffffffffffffffffff8a16818a0190815281906020010390fd5b0390fd5b9497509295509093509181610f4a610f50610f3a565b8061103c611042926106b3565b80611212565b38610fc5565b50346102eb5760207ffffffffffffffffffffffffffffffffffffffffffffffffffffffffffffffffc3601126102eb5761023f73ffffffffffffffffffffffffffffffffffffffff60043561109c8161055a565b6080604092839283516110ae8161066d565b60009381858093528260208201528287820152826060820152015216815280602052209061113d65ffffffffffff60018351946110ea8661066d565b80546dffffffffffffffffffffffffffff8082168852607082901c60ff161515602089015260789190911c1685870152015463ffffffff8116606086015260201c16608084019065ffffffffffff169052565b5191829182919091608065ffffffffffff8160a08401956dffffffffffffffffffffffffffff808251168652602082015115156020870152604082015116604086015263ffffffff6060820151166060860152015116910152565b50346102eb5760207ffffffffffffffffffffffffffffffffffffffffffffffffffffffffffffffffc3601126102eb5773ffffffffffffffffffffffffffffffffffffffff6004356111e98161055a565b16600052600060205260206dffffffffffffffffffffffffffff60406000205416604051908152f35b60009103126102eb57565b50346102eb5760007ffffffffffffffffffffffffffffffffffffffffffffffffffffffffffffffffc3601126102eb57602060405160018152f35b50346102eb5760207ffffffffffffffffffffffffffffffffffffffffffffffffffffffffffffffffc3601126102eb5760043567ffffffffffffffff81116102eb5761130360206112af60249336906004016107b1565b73ffffffffffffffffffffffffffffffffffffffff929183600354169060006040518097819582947f570e1a3600000000000000000000000000000000000000000000000000000000845260048401612528565b03925af1918215611377575b600092611347575b50604051917f6ca7b806000000000000000000000000000000000000000000000000000000008352166004820152fd5b61136991925060203d8111611370575b61136181836106e3565b810190612513565b9038611317565b503d611357565b61137f611cca565b61130f565b50346102eb577ffffffffffffffffffffffffffffffffffffffffffffffffffffffffffffffffc6020813601126102eb576004359067ffffffffffffffff82116102eb576101609082360301126102eb576113e36020916004016123cf565b604051908152f35b5060207ffffffffffffffffffffffffffffffffffffffffffffffffffffffffffffffffc3601126102eb576100216004356114258161055a565b6140b4565b50346102eb576000807ffffffffffffffffffffffffffffffffffffffffffffffffffffffffffffffffc3601126115a5573381528060205260408120600181019063ffffffff825416908115611547576114e46114a961150c9361149b611496855460ff9060701c1690565b614418565b65ffffffffffff421661447d565b84547fffffffffffffffffffffffffffffffffffffffffffff000000000000ffffffff16602082901b69ffffffffffff000000001617909455565b7fffffffffffffffffffffffffffffffffff00ffffffffffffffffffffffffffff8154169055565b60405165ffffffffffff91909116815233907ffa9b3c14cc825c412c9ed81b3ba365a5b459439403f18829e572ed53a4180f0a90602090a280f35b60646040517f08c379a000000000000000000000000000000000000000000000000000000000815260206004820152600a60248201527f6e6f74207374616b6564000000000000000000000000000000000000000000006044820152fd5b80fd5b50346102eb5760207ffffffffffffffffffffffffffffffffffffffffffffffffffffffffffffffffc3601126102eb576004356115e48161055a565b610bc673ffffffffffffffffffffffffffffffffffffffff6116263373ffffffffffffffffffffffffffffffffffffffff166000526000602052604060002090565b926116de611649610b2086546dffffffffffffffffffffffffffff9060781c1690565b94611655861515614497565b6116b66001820161168e65ffffffffffff61167a835465ffffffffffff9060201c1690565b166116868115156144fc565b421015614561565b80547fffffffffffffffffffffffffffffffffffffffffffff00000000000000000000169055565b7fffffff0000000000000000000000000000ffffffffffffffffffffffffffffff8154169055565b6040805173ffffffffffffffffffffffffffffffffffffffff831681526020810186905233917fb7c918e0e249f999e965cafeb6c664271b3f4317d296461500e71da39f0cbda391a2600080809581948294165af161173b6119ee565b506145c6565b50346102eb5760207ffffffffffffffffffffffffffffffffffffffffffffffffffffffffffffffffc3601126102eb5773ffffffffffffffffffffffffffffffffffffffff6004356117928161055a565b16600052600060205260a0604060002065ffffffffffff60018254920154604051926dffffffffffffffffffffffffffff90818116855260ff8160701c161515602086015260781c16604084015263ffffffff8116606084015260201c166080820152f35b60209067ffffffffffffffff8111611811575b60051b0190565b61181961063d565b61180a565b90611828826117f7565b604090611837825191826106e3565b8381527fffffffffffffffffffffffffffffffffffffffffffffffffffffffffffffffe061186582956117f7565b019160005b8381106118775750505050565b60209082516118858161066d565b835161189081610696565b600081526000849181838201528187820152816060818184015260809282848201528260a08201528260c08201528260e082015286528185870152818987015285015283015282860101520161186a565b507f4e487b7100000000000000000000000000000000000000000000000000000000600052603260045260246000fd5b6020918151811015611926575b60051b010190565b61192e6118e1565b61191e565b9190811015611974575b60051b810135907ffffffffffffffffffffffffffffffffffffffffffffffffffffffffffffffea1813603018212156102eb570190565b61197c6118e1565b61193d565b60028054146119905760028055565b60646040517f08c379a000000000000000000000000000000000000000000000000000000000815260206004820152601f60248201527f5265656e7472616e637947756172643a207265656e7472616e742063616c6c006044820152fd5b3d15611a19573d906119ff82610731565b91611a0d60405193846106e3565b82523d6000602084013e565b606090565b73ffffffffffffffffffffffffffffffffffffffff168015611ab157600080809381935af1611a4b6119ee565b5015611a5357565b60646040517f08c379a000000000000000000000000000000000000000000000000000000000815260206004820152601f60248201527f41413931206661696c65642073656e6420746f2062656e6566696369617279006044820152fd5b60646040517f08c379a000000000000000000000000000000000000000000000000000000000815260206004820152601860248201527f4141393020696e76616c69642062656e656669636961727900000000000000006044820152fd5b9035907fffffffffffffffffffffffffffffffffffffffffffffffffffffffffffffffe1813603018212156102eb570180359067ffffffffffffffff82116102eb576020019181360383136102eb57565b908160209103126102eb575190565b601f82602094937fffffffffffffffffffffffffffffffffffffffffffffffffffffffffffffffe0938186528686013760008582860101520116010190565b60005b838110611bc15750506000910152565b8181015183820152602001611bb1565b907fffffffffffffffffffffffffffffffffffffffffffffffffffffffffffffffe0601f602093611c0d81518092818752878088019101611bae565b0116010190565b90611c2e6080916109ab96946101c0808652850191611b6f565b9360e0815173ffffffffffffffffffffffffffffffffffffffff80825116602087015260208201516040870152604082015160608701526060820151858701528482015160a087015260a08201511660c086015260c081015182860152015161010084015260208101516101208401526040810151610140840152606081015161016084015201516101808201526101a0818403910152611bd1565b506040513d6000823e3d90fd5b507f4e487b7100000000000000000000000000000000000000000000000000000000600052601160045260246000fd5b91908203918211611d1457565b610585611cd7565b91908201809211611d1457565b909291925a93611d426060820151926060810190611b0f565b90611d7a84846040519485947f1d73275600000000000000000000000000000000000000000000000000000000865260048601611c14565b03906020816000938185305af1829181611e6e575b50611e6657507fdeaddead00000000000000000000000000000000000000000000000000000000908060203d14611e58575b5014611dea57611de4611dd96109ab95965a90611d07565b608083015190611d1c565b926138c9565b611015836040519182917f220266b600000000000000000000000000000000000000000000000000000000835260048301608091815260406020820152600f60408201527f41413935206f7574206f6620676173000000000000000000000000000000000060608201520190565b9050602081803e5138611dc1565b955050505050565b611e9091925060203d8111611e97575b611e8881836106e3565b810190611b60565b9038611d8f565b503d611e7e565b6001907fffffffffffffffffffffffffffffffffffffffffffffffffffffffffffffffff8114611ecc570190565b611ed4611cd7565b0190565b9190811015611f19575b60051b810135907fffffffffffffffffffffffffffffffffffffffffffffffffffffffffffffffa1813603018212156102eb570190565b611f216118e1565b611ee2565b9035907fffffffffffffffffffffffffffffffffffffffffffffffffffffffffffffffe1813603018212156102eb570180359067ffffffffffffffff82116102eb57602001918160051b360383136102eb57565b356109ab8161055a565b15611f8b57565b60646040517f08c379a000000000000000000000000000000000000000000000000000000000815260206004820152601760248201527f4141393620696e76616c69642061676772656761746f720000000000000000006044820152fd5b90357fffffffffffffffffffffffffffffffffffffffffffffffffffffffffffffffe1823603018112156102eb57016020813591019167ffffffffffffffff82116102eb5781360383136102eb57565b6109ab916120648161204a84610594565b73ffffffffffffffffffffffffffffffffffffffff169052565b602082013560208201526120ff6120b06120956120846040860186611fe9565b610160806040880152860191611b6f565b6120a26060860186611fe9565b908583036060870152611b6f565b6080840135608084015260a084013560a084015260c084013560c084015260e084013560e084015261010080850135908401526101206120f281860186611fe9565b9185840390860152611b6f565b916121106101409182810190611fe9565b929091818503910152611b6f565b949391929083604087016040885252606086019360608160051b8801019482600090815b848310612161575050505050508460206109ab95968503910152611b6f565b9091929394977fffffffffffffffffffffffffffffffffffffffffffffffffffffffffffffffa08b820301855288357ffffffffffffffffffffffffffffffffffffffffffffffffffffffffffffffea1843603018112156121dc57600191846121ca9201612039565b98602090810196950193019190612142565b8280fd5b156121e757565b60646040517f08c379a000000000000000000000000000000000000000000000000000000000815260206004820152601760248201527f4141393220696e7465726e616c2063616c6c206f6e6c790000000000000000006044820152fd5b9060406109ab92600081528160208201520190611bd1565b6040906109ab939281528160208201520190611bd1565b909291925a936122853033146121e0565b8151946040860151955a6113886060830151890101116123a5576109ab9660009580516122cc575b505050906122c6915a900360808401510194369161077a565b91613ba6565b6122fb916122f7916122f2855173ffffffffffffffffffffffffffffffffffffffff1690565b61469b565b1590565b612307575b80806122ad565b6122c6929194506123166146ad565b90815161232a575b50506001939091612300565b7f1c4fada7374c0a9ee8841fc38afe82932dc0f8e69012e927f061a8bae611a20173ffffffffffffffffffffffffffffffffffffffff60208701519261239b6020612389835173ffffffffffffffffffffffffffffffffffffffff1690565b9201519560405193849316968361225d565b0390a3388061231e565b7fdeaddead0000000000000000000000000000000000000000000000000000000060005260206000fd5b6123e56123df6040830183611b0f565b90614690565b906123f66123df6060830183611b0f565b906124ac61240b6123df610120840184611b0f565b60405194859360208501956101008201359260e08301359260c08101359260a08201359260808301359273ffffffffffffffffffffffffffffffffffffffff60208201359135168c9693909a9998959261012098959273ffffffffffffffffffffffffffffffffffffffff6101408a019d168952602089015260408801526060870152608086015260a085015260c084015260e08301526101008201520152565b03916124de7fffffffffffffffffffffffffffffffffffffffffffffffffffffffffffffffe0938481018352826106e3565b5190206040805160208101928352309181019190915246606082015260809283018152909161250d90826106e3565b51902090565b908160209103126102eb57516109ab8161055a565b9160206109ab938181520191611b6f565b919061254490612788565b73ffffffffffffffffffffffffffffffffffffffff929183166126e3576126755761256e90612788565b91166126075761257b5750565b604080517f220266b600000000000000000000000000000000000000000000000000000000815260048101929092526024820152602160448201527f41413332207061796d61737465722065787069726564206f72206e6f7420647560648201527f6500000000000000000000000000000000000000000000000000000000000000608482015260a490fd5b611015826040519182917f220266b600000000000000000000000000000000000000000000000000000000835260048301608091815260406020820152601460408201527f41413334207369676e6174757265206572726f7200000000000000000000000060608201520190565b611015836040519182917f220266b600000000000000000000000000000000000000000000000000000000835260048301608091815260406020820152601760408201527f414132322065787069726564206f72206e6f742064756500000000000000000060608201520190565b611015846040519182917f220266b600000000000000000000000000000000000000000000000000000000835260048301608091815260406020820152601460408201527f41413234207369676e6174757265206572726f7200000000000000000000000060608201520190565b92919061275d90612788565b909273ffffffffffffffffffffffffffffffffffffffff808095169116036126e3576126755761256e905b80156128735760006040805161279d816106c7565b828152826020820152015265ffffffffffff90818160a01c16918215612869575b5061284b9061282561281a604051946127d6866106c7565b73ffffffffffffffffffffffffffffffffffffffff84168652612808602087019460d01c859065ffffffffffff169052565b65ffffffffffff166040860181905290565b65ffffffffffff1690565b421190811561284e575b50915173ffffffffffffffffffffffffffffffffffffffff1690565b91565b51612861915065ffffffffffff1661281a565b42103861282f565b915061284b6127be565b50600090600090565b1561288357565b60646040517f08c379a000000000000000000000000000000000000000000000000000000000815260206004820152601860248201527f41413934206761732076616c756573206f766572666c6f7700000000000000006044820152fd5b9290916000925a82516128f48184612b9e565b6128fd836123cf565b602085015261293b6effffffffffffffffffffffffffffff60808301516060840151176040840151176101008601359060e08701351717111561287c565b61294481612c6c565b6129508186868b612dd8565b98906129816122f7612976865173ffffffffffffffffffffffffffffffffffffffff1690565b602087015190613f4a565b612a795761298e43600052565b73ffffffffffffffffffffffffffffffffffffffff6129c660a0606096015173ffffffffffffffffffffffffffffffffffffffff1690565b16612a5e575b505a840360a0860135106129f85750604085015260608401526080919060c0905a900391013501910152565b604080517f220266b600000000000000000000000000000000000000000000000000000000815260048101929092526024820152601e60448201527f41413430206f76657220766572696669636174696f6e4761734c696d697400006064820152608490fd5b90925081612a70929850868685613560565b969091386129cc565b611015826040519182917f220266b600000000000000000000000000000000000000000000000000000000835260048301608091815260406020820152601a60408201527f4141323520696e76616c6964206163636f756e74206e6f6e636500000000000060608201520190565b15612aee57565b60646040517f08c379a000000000000000000000000000000000000000000000000000000000815260206004820152601d60248201527f4141393320696e76616c6964207061796d6173746572416e64446174610000006044820152fd5b906014116102eb5790601490565b7fffffffffffffffffffffffffffffffffffffffff0000000000000000000000009035818116939260148110612b8f57505050565b60140360031b82901b16169150565b612c1090612bc8612bae82611f7a565b73ffffffffffffffffffffffffffffffffffffffff168452565b602081013560208401526080810135604084015260a0810135606084015260c0810135608084015260e081013560c084015261010081013560e0840152610120810190611b0f565b908115612c6157612c46612c40612c3a8460a094612c35601461058599981015612ae7565b612b4c565b90612b5a565b60601c90565b73ffffffffffffffffffffffffffffffffffffffff16910152565b505060a06000910152565b60a081015173ffffffffffffffffffffffffffffffffffffffff1615612cae5760c060035b60ff60408401519116606084015102016080830151019101510290565b60c06001612c91565b612ccf60409295949395606083526060830190612039565b9460208201520152565b60009060033d11612ce657565b905060046000803e60005160e01c90565b600060443d106109ab576040517ffffffffffffffffffffffffffffffffffffffffffffffffffffffffffffffffc91823d016004833e815167ffffffffffffffff918282113d602484011117612d7357818401948551938411612d7b573d85010160208487010111612d7357506109ab929101602001906106e3565b949350505050565b50949350505050565b90610585602f60405180947f414132332072657665727465643a2000000000000000000000000000000000006020830152612dc88151809260208686019101611bae565b810103600f8101855201836106e3565b90926000936000935a94612ea86020835193612e08855173ffffffffffffffffffffffffffffffffffffffff1690565b95612e21612e196040830183611b0f565b90848c613132565b60a086015173ffffffffffffffffffffffffffffffffffffffff1690612e4643600052565b85809373ffffffffffffffffffffffffffffffffffffffff8094161598896130ca575b60600151908601516040517f3a871cdd000000000000000000000000000000000000000000000000000000008152978896879586939060048501612cb7565b03938a1690f18291816130aa575b506130a15750600190612ec7612cd9565b6308c379a01461304b575b50612fdd575b612ee6575b5050505a900391565b612f109073ffffffffffffffffffffffffffffffffffffffff166000526000602052604060002090565b91612f2c610b2084546dffffffffffffffffffffffffffff1690565b90818311612f77575082547fffffffffffffffffffffffffffffffffffff0000000000000000000000000000169190036dffffffffffffffffffffffffffff16179055388080612edd565b604080517f220266b600000000000000000000000000000000000000000000000000000000815260048101929092526024820152601760448201527f41413231206469646e2774207061792070726566756e640000000000000000006064820152608490fd5b611015846040519182917f220266b600000000000000000000000000000000000000000000000000000000835260048301608091815260406020820152601660408201527f4141323320726576657274656420286f72204f4f47290000000000000000000060608201520190565b613053612cf7565b908161305f5750612ed2565b869161306b9150612d84565b906110156040519283927f220266b60000000000000000000000000000000000000000000000000000000084526004840161225d565b9650612ed89050565b6130c391925060203d8111611e9757611e8881836106e3565b9038612eb6565b9450613110610b206130fc8c73ffffffffffffffffffffffffffffffffffffffff166000526000602052604060002090565b546dffffffffffffffffffffffffffff1690565b8b8111156131275750856060835b96915050612e69565b606087918d0361311e565b92909181613141575b50505050565b82515173ffffffffffffffffffffffffffffffffffffffff1693843b6133e65760006020613187610da760035473ffffffffffffffffffffffffffffffffffffffff1690565b606087510151604051809481937f570e1a36000000000000000000000000000000000000000000000000000000008352826131c68b8b60048401612528565b0393f19081156133d9575b6000916133bb575b5073ffffffffffffffffffffffffffffffffffffffff80821696871561334d57168096036132df573b156132795750612c40612c3a7fd51a9c61267aa6196961883ecf5ff2da6619c37dac0fa92122513fb32c032d2d9361323993612b4c565b602083810151935160a001516040805173ffffffffffffffffffffffffffffffffffffffff9485168152939091169183019190915290a33880808061313b565b604080517f220266b600000000000000000000000000000000000000000000000000000000815260048101929092526024820152602060448201527f4141313520696e6974436f6465206d757374206372656174652073656e6465726064820152608490fd5b611015826040519182917f220266b600000000000000000000000000000000000000000000000000000000835260048301608091815260406020820152602060408201527f4141313420696e6974436f6465206d7573742072657475726e2073656e64657260608201520190565b611015846040519182917f220266b600000000000000000000000000000000000000000000000000000000835260048301608091815260406020820152601b60408201527f4141313320696e6974436f6465206661696c6564206f72204f4f47000000000060608201520190565b6133d3915060203d81116113705761136181836106e3565b386131d9565b6133e1611cca565b6131d1565b604080517f220266b600000000000000000000000000000000000000000000000000000000815260048101929092526024820152601f60448201527f414131302073656e64657220616c726561647920636f6e7374727563746564006064820152608490fd5b1561345357565b60646040517f08c379a000000000000000000000000000000000000000000000000000000000815260206004820152601f60248201527f4141343120746f6f206c6974746c6520766572696669636174696f6e476173006044820152fd5b91906040838203126102eb57825167ffffffffffffffff81116102eb5783019080601f830112156102eb578151916134e883610731565b916134f660405193846106e3565b838352602084830101116102eb5760209261351691848085019101611bae565b92015190565b90610585602f60405180947f414133332072657665727465643a2000000000000000000000000000000000006020830152612dc88151809260208686019101611bae565b9194929390936060956000956000938251906135a260a08b8401519361358784861161344c565b015173ffffffffffffffffffffffffffffffffffffffff1690565b936135cd8573ffffffffffffffffffffffffffffffffffffffff166000526000602052604060002090565b6135e8610b2082546dffffffffffffffffffffffffffff1690565b878110613784579273ffffffffffffffffffffffffffffffffffffffff60208a989693946136628a966dffffffffffffffffffffffffffff8d61369b9e9c9a03166dffffffffffffffffffffffffffff167fffffffffffffffffffffffffffffffffffff0000000000000000000000000000825416179055565b015194604051998a98899788937ff465c77e00000000000000000000000000000000000000000000000000000000855260048501612cb7565b0395169103f190818391849361375e575b506137565750506001906136be612cd9565b6308c379a014613737575b506136d15750565b604080517f220266b600000000000000000000000000000000000000000000000000000000815260048101929092526024820152601660448201527f4141333320726576657274656420286f72204f4f4729000000000000000000006064820152608490fd5b61373f612cf7565b908161374b57506136c9565b61306b92505061351c565b955093505050565b90925061377d91503d8085833e61377581836106e3565b8101906134b1565b91386136ac565b6110158a6040519182917f220266b600000000000000000000000000000000000000000000000000000000835260048301608091815260406020820152601e60408201527f41413331207061796d6173746572206465706f73697420746f6f206c6f77000060608201520190565b600311156137fc57565b7f4e487b7100000000000000000000000000000000000000000000000000000000600052602160045260246000fd5b92919061384960409160028652606060208701526060860190611bd1565b930152565b9392919060038110156137fc57604091613849918652606060208701526060860190611bd1565b90610585603660405180947f4141353020706f73744f702072657665727465643a200000000000000000000060208301526138b98151809260208686019101611bae565b81010360168101855201836106e3565b9392915a906000928051906138dd82613f22565b9360a0830196613901885173ffffffffffffffffffffffffffffffffffffffff1690565b73ffffffffffffffffffffffffffffffffffffffff95908681169081613a6c57505050613942845173ffffffffffffffffffffffffffffffffffffffff1690565b915b5a9003019485029860408301908a825110613a0657507f49628fd1471006c1482da88028e9ce4dbb080b815c9b0344d39e5a8e6ec1419f949392613991613a01938c602094510390613fc3565b0151948960206139d36139b8865173ffffffffffffffffffffffffffffffffffffffff1690565b9a5173ffffffffffffffffffffffffffffffffffffffff1690565b9401519785604051968796169a16988590949392606092608083019683521515602083015260408201520152565b0390a4565b604080517f220266b600000000000000000000000000000000000000000000000000000000815260048101929092526024820152602060448201527f414135312070726566756e642062656c6f772061637475616c476173436f73746064820152608490fd5b93918051613a7c575b5050613944565b606087015160009a509091803b15613ba257918a918a83613acf956040518097819682957fa9a234090000000000000000000000000000000000000000000000000000000084528c02906004840161382b565b0393f19081613b8f575b50613b8a576001613ae8612cd9565b6308c379a014613b6d575b613aff575b3880613a75565b6110158b6040519182917f220266b600000000000000000000000000000000000000000000000000000000835260048301608091815260406020820152601260408201527f4141353020706f73744f7020726576657274000000000000000000000000000060608201520190565b613b75612cf7565b80613b805750613af3565b61306b8d91613875565b613af8565b8061103c613b9c926106b3565b38613ad9565b8a80fd5b909392915a94805191613bb883613f22565b9260a0810195613bdc875173ffffffffffffffffffffffffffffffffffffffff1690565b73ffffffffffffffffffffffffffffffffffffffff938185169182613d3157505050613c1c825173ffffffffffffffffffffffffffffffffffffffff1690565b985b5a90030193840297604084019089825110613cc4577f49628fd1471006c1482da88028e9ce4dbb080b815c9b0344d39e5a8e6ec1419f94613c686020928c613a0195510390613fc3565b613c71886137f2565b015194896020613c986139b8865173ffffffffffffffffffffffffffffffffffffffff1690565b940151604080519182529815602082015297880152606087015290821695909116939081906080820190565b6040517f220266b600000000000000000000000000000000000000000000000000000000815280611015600482016080906000815260406020820152602060408201527f414135312070726566756e642062656c6f772061637475616c476173436f737460608201520190565b9a918151613d41575b5050613c1e565b878402613d4d8a6137f2565b60028a14613dd8576060860151823b156102eb57613da093600080948d604051978896879586937fa9a234090000000000000000000000000000000000000000000000000000000085526004850161384e565b0393f18015613dcb575b613db8575b505b3880613d3a565b8061103c613dc5926106b3565b38613daf565b613dd3611cca565b613daa565b6060860151823b156102eb57613e2393600080948d604051978896879586937fa9a234090000000000000000000000000000000000000000000000000000000085526004850161384e565b0393f19081613f0f575b50613f0a576001613e3c612cd9565b6308c379a014613eb9575b15613db1576040517f220266b600000000000000000000000000000000000000000000000000000000815280611015600482016080906000815260406020820152601260408201527f4141353020706f73744f7020726576657274000000000000000000000000000060608201520190565b613ec1612cf7565b80613ecc5750613e47565b613ed861101591613875565b6040519182917f220266b600000000000000000000000000000000000000000000000000000000835260048301612245565b613db1565b8061103c613f1c926106b3565b38613e2d565b60e060c0820151910151808214613f4657480180821015613f41575090565b905090565b5090565b73ffffffffffffffffffffffffffffffffffffffff16600052600160205267ffffffffffffffff613fa68260401c60406000209077ffffffffffffffffffffffffffffffffffffffffffffffff16600052602052604060002090565b91825492613fb384611e9e565b9055161490565b610585336140b4565b73ffffffffffffffffffffffffffffffffffffffff16600052600060205260406000206dffffffffffffffffffffffffffff808254169283018093116140a7575b8083116140495761058592166dffffffffffffffffffffffffffff167fffffffffffffffffffffffffffffffffffff0000000000000000000000000000825416179055565b60646040517f08c379a000000000000000000000000000000000000000000000000000000000815260206004820152601060248201527f6465706f736974206f766572666c6f77000000000000000000000000000000006044820152fd5b6140af611cd7565b614004565b73ffffffffffffffffffffffffffffffffffffffff906140d43482613fc3565b168060005260006020527f2da466a7b24304f47e87fa2e1e5a81b9831ce54fec19055ce277ca2f39ba42c460206dffffffffffffffffffffffffffff60406000205416604051908152a2565b1561412757565b60646040517f08c379a000000000000000000000000000000000000000000000000000000000815260206004820152601a60248201527f6d757374207370656369667920756e7374616b652064656c61790000000000006044820152fd5b1561418c57565b60646040517f08c379a000000000000000000000000000000000000000000000000000000000815260206004820152601c60248201527f63616e6e6f7420646563726561736520756e7374616b652074696d65000000006044820152fd5b156141f157565b60646040517f08c379a000000000000000000000000000000000000000000000000000000000815260206004820152601260248201527f6e6f207374616b652073706563696669656400000000000000000000000000006044820152fd5b1561425657565b60646040517f08c379a000000000000000000000000000000000000000000000000000000000815260206004820152600e60248201527f7374616b65206f766572666c6f770000000000000000000000000000000000006044820152fd5b9065ffffffffffff60806001610585946143146dffffffffffffffffffffffffffff86511682906dffffffffffffffffffffffffffff167fffffffffffffffffffffffffffffffffffff0000000000000000000000000000825416179055565b602085015115156eff000000000000000000000000000082549160701b16807fffffffffffffffffffffffffffffffffff00ffffffffffffffffffffffffffff83161783557fffffff000000000000000000000000000000ffffffffffffffffffffffffffff7cffffffffffffffffffffffffffff000000000000000000000000000000604089015160781b16921617178155019263ffffffff6060820151167fffffffffffffffffffffffffffffffffffffffffffffffffffffffff000000008554161784550151167fffffffffffffffffffffffffffffffffffffffffffff000000000000ffffffff69ffffffffffff0000000083549260201b169116179055565b1561441f57565b60646040517f08c379a000000000000000000000000000000000000000000000000000000000815260206004820152601160248201527f616c726561647920756e7374616b696e670000000000000000000000000000006044820152fd5b91909165ffffffffffff80809416911601918211611d1457565b1561449e57565b60646040517f08c379a000000000000000000000000000000000000000000000000000000000815260206004820152601460248201527f4e6f207374616b6520746f2077697468647261770000000000000000000000006044820152fd5b1561450357565b60646040517f08c379a000000000000000000000000000000000000000000000000000000000815260206004820152601d60248201527f6d7573742063616c6c20756e6c6f636b5374616b6528292066697273740000006044820152fd5b1561456857565b60646040517f08c379a000000000000000000000000000000000000000000000000000000000815260206004820152601b60248201527f5374616b65207769746864726177616c206973206e6f742064756500000000006044820152fd5b156145cd57565b60646040517f08c379a000000000000000000000000000000000000000000000000000000000815260206004820152601860248201527f6661696c656420746f207769746864726177207374616b6500000000000000006044820152fd5b1561463257565b60646040517f08c379a000000000000000000000000000000000000000000000000000000000815260206004820152601260248201527f6661696c656420746f20776974686472617700000000000000000000000000006044820152fd5b816040519182372090565b9060009283809360208451940192f190565b3d6108008082116146d4575b50604051906020818301016040528082526000602083013e90565b9050386146b956fea2646970667358221220f445e426d651790e26c360ee51f375c39397c344c8f2748b41eee3750398781564736f6c634300081100336080806040523461001657610210908161001c8239f35b600080fdfe6080604052600436101561001257600080fd5b6000803560e01c63570e1a361461002857600080fd5b346100c95760207ffffffffffffffffffffffffffffffffffffffffffffffffffffffffffffffffc3601126100c95760043567ffffffffffffffff918282116100c957366023830112156100c95781600401359283116100c95736602484840101116100c9576100c561009e84602485016100fc565b60405173ffffffffffffffffffffffffffffffffffffffff90911681529081906020820190565b0390f35b80fd5b507f4e487b7100000000000000000000000000000000000000000000000000000000600052604160045260246000fd5b90806014116101bb5767ffffffffffffffff917fffffffffffffffffffffffffffffffffffffffffffffffffffffffffffffffec82018381116101cd575b604051937fffffffffffffffffffffffffffffffffffffffffffffffffffffffffffffffe0603f81600b8701160116850190858210908211176101c0575b604052808452602084019036848401116101bb576020946000600c819682946014880187378301015251923560601c5af19060005191156101b557565b60009150565b600080fd5b6101c86100cc565b610178565b6101d56100cc565b61013a56fea2646970667358221220b7dc0c7243a9890990f8bc02d272fe367d53a4f35206be3673bf3291ce4c35ae64736f6c63430008110033",
  "linkReferences": {},
  "deployedLinkReferences": {}
}