{
  "_format": "hh-sol-artifact-1",
  "contractName": "LegacyTokenPaymaster",
  "sourceName": "contracts/LegacyTokenPaymaster.sol",
  "abi": [
    {
      "inputs": [
        {
          "internalType": "address",
          "name": "accountFactory",
          "type": "address"
        },
        {
          "internalType": "string",
          "name": "_symbol",
          "type": "string"
        },
        {
          "internalType": "contract IEntryPoint",
          "name": "_entryPoint",
          "type": "address"
        }
      ],
      "stateMutability": "nonpayable",
      "type": "constructor"
    },
    {
      "anonymous": false,
      "inputs": [
        {
          "indexed": true,
          "internalType": "address",
          "name": "owner",
          "type": "address"
        },
        {
          "indexed": true,
          "internalType": "address",
          "name": "spender",
          "type": "address"
        },
        {
          "indexed": false,
          "internalType": "uint256",
          "name": "value",
          "type": "uint256"
        }
      ],
      "name": "Approval",
      "type": "event"
    },
    {
      "anonymous": false,
      "inputs": [
        {
          "indexed": true,
          "internalType": "address",
          "name": "previousOwner",
          "type": "address"
        },
        {
          "indexed": true,
          "internalType": "address",
          "name": "newOwner",
          "type": "address"
        }
      ],
      "name": "OwnershipTransferred",
      "type": "event"
    },
    {
      "anonymous": false,
      "inputs": [
        {
          "indexed": true,
          "internalType": "address",
          "name": "from",
          "type": "address"
        },
        {
          "indexed": true,
          "internalType": "address",
          "name": "to",
          "type": "address"
        },
        {
          "indexed": false,
          "internalType": "uint256",
          "name": "value",
          "type": "uint256"
        }
      ],
      "name": "Transfer",
      "type": "event"
    },
    {
      "inputs": [],
      "name": "COST_OF_POST",
      "outputs": [
        {
          "internalType": "uint256",
          "name": "",
          "type": "uint256"
        }
      ],
      "stateMutability": "view",
      "type": "function"
    },
    {
      "inputs": [
        {
          "internalType": "uint32",
          "name": "unstakeDelaySec",
          "type": "uint32"
        }
      ],
      "name": "addStake",
      "outputs": [],
      "stateMutability": "payable",
      "type": "function"
    },
    {
      "inputs": [
        {
          "internalType": "address",
          "name": "owner",
          "type": "address"
        },
        {
          "internalType": "address",
          "name": "spender",
          "type": "address"
        }
      ],
      "name": "allowance",
      "outputs": [
        {
          "internalType": "uint256",
          "name": "",
          "type": "uint256"
        }
      ],
      "stateMutability": "view",
      "type": "function"
    },
    {
      "inputs": [
        {
          "internalType": "address",
          "name": "spender",
          "type": "address"
        },
        {
          "internalType": "uint256",
          "name": "amount",
          "type": "uint256"
        }
      ],
      "name": "approve",
      "outputs": [
        {
          "internalType": "bool",
          "name": "",
          "type": "bool"
        }
      ],
      "stateMutability": "nonpayable",
      "type": "function"
    },
    {
      "inputs": [
        {
          "internalType": "address",
          "name": "account",
          "type": "address"
        }
      ],
      "name": "balanceOf",
      "outputs": [
        {
          "internalType": "uint256",
          "name": "",
          "type": "uint256"
        }
      ],
      "stateMutability": "view",
      "type": "function"
    },
    {
      "inputs": [],
      "name": "decimals",
      "outputs": [
        {
          "internalType": "uint8",
          "name": "",
          "type": "uint8"
        }
      ],
      "stateMutability": "view",
      "type": "function"
    },
    {
      "inputs": [
        {
          "internalType": "address",
          "name": "spender",
          "type": "address"
        },
        {
          "internalType": "uint256",
          "name": "subtractedValue",
          "type": "uint256"
        }
      ],
      "name": "decreaseAllowance",
      "outputs": [
        {
          "internalType": "bool",
          "name": "",
          "type": "bool"
        }
      ],
      "stateMutability": "nonpayable",
      "type": "function"
    },
    {
      "inputs": [],
      "name": "deposit",
      "outputs": [],
      "stateMutability": "payable",
      "type": "function"
    },
    {
      "inputs": [],
      "name": "entryPoint",
      "outputs": [
        {
          "internalType": "contract IEntryPoint",
          "name": "",
          "type": "address"
        }
      ],
      "stateMutability": "view",
      "type": "function"
    },
    {
      "inputs": [],
      "name": "getDeposit",
      "outputs": [
        {
          "internalType": "uint256",
          "name": "",
          "type": "uint256"
        }
      ],
      "stateMutability": "view",
      "type": "function"
    },
    {
      "inputs": [
        {
          "internalType": "address",
          "name": "spender",
          "type": "address"
        },
        {
          "internalType": "uint256",
          "name": "addedValue",
          "type": "uint256"
        }
      ],
      "name": "increaseAllowance",
      "outputs": [
        {
          "internalType": "bool",
          "name": "",
          "type": "bool"
        }
      ],
      "stateMutability": "nonpayable",
      "type": "function"
    },
    {
      "inputs": [
        {
          "internalType": "address",
          "name": "recipient",
          "type": "address"
        },
        {
          "internalType": "uint256",
          "name": "amount",
          "type": "uint256"
        }
      ],
      "name": "mintTokens",
      "outputs": [],
      "stateMutability": "nonpayable",
      "type": "function"
    },
    {
      "inputs": [],
      "name": "name",
      "outputs": [
        {
          "internalType": "string",
          "name": "",
          "type": "string"
        }
      ],
      "stateMutability": "view",
      "type": "function"
    },
    {
      "inputs": [],
      "name": "owner",
      "outputs": [
        {
          "internalType": "address",
          "name": "",
          "type": "address"
        }
      ],
      "stateMutability": "view",
      "type": "function"
    },
    {
      "inputs": [
        {
          "internalType": "enum IPaymaster.PostOpMode",
          "name": "mode",
          "type": "uint8"
        },
        {
          "internalType": "bytes",
          "name": "context",
          "type": "bytes"
        },
        {
          "internalType": "uint256",
          "name": "actualGasCost",
          "type": "uint256"
        }
      ],
      "name": "postOp",
      "outputs": [],
      "stateMutability": "nonpayable",
      "type": "function"
    },
    {
      "inputs": [],
      "name": "renounceOwnership",
      "outputs": [],
      "stateMutability": "nonpayable",
      "type": "function"
    },
    {
      "inputs": [],
      "name": "symbol",
      "outputs": [
        {
          "internalType": "string",
          "name": "",
          "type": "string"
        }
      ],
      "stateMutability": "view",
      "type": "function"
    },
    {
      "inputs": [],
      "name": "theFactory",
      "outputs": [
        {
          "internalType": "address",
          "name": "",
          "type": "address"
        }
      ],
      "stateMutability": "view",
      "type": "function"
    },
    {
      "inputs": [],
      "name": "totalSupply",
      "outputs": [
        {
          "internalType": "uint256",
          "name": "",
          "type": "uint256"
        }
      ],
      "stateMutability": "view",
      "type": "function"
    },
    {
      "inputs": [
        {
          "internalType": "address",
          "name": "to",
          "type": "address"
        },
        {
          "internalType": "uint256",
          "name": "amount",
          "type": "uint256"
        }
      ],
      "name": "transfer",
      "outputs": [
        {
          "internalType": "bool",
          "name": "",
          "type": "bool"
        }
      ],
      "stateMutability": "nonpayable",
      "type": "function"
    },
    {
      "inputs": [
        {
          "internalType": "address",
          "name": "from",
          "type": "address"
        },
        {
          "internalType": "address",
          "name": "to",
          "type": "address"
        },
        {
          "internalType": "uint256",
          "name": "amount",
          "type": "uint256"
        }
      ],
      "name": "transferFrom",
      "outputs": [
        {
          "internalType": "bool",
          "name": "",
          "type": "bool"
        }
      ],
      "stateMutability": "nonpayable",
      "type": "function"
    },
    {
      "inputs": [
        {
          "internalType": "address",
          "name": "newOwner",
          "type": "address"
        }
      ],
      "name": "transferOwnership",
      "outputs": [],
      "stateMutability": "nonpayable",
      "type": "function"
    },
    {
      "inputs": [],
      "name": "unlockStake",
      "outputs": [],
      "stateMutability": "nonpayable",
      "type": "function"
    },
    {
      "inputs": [
        {
          "components": [
            {
              "internalType": "address",
              "name": "sender",
              "type": "address"
            },
            {
              "internalType": "uint256",
              "name": "nonce",
              "type": "uint256"
            },
            {
              "internalType": "bytes",
              "name": "initCode",
              "type": "bytes"
            },
            {
              "internalType": "bytes",
              "name": "callData",
              "type": "bytes"
            },
            {
              "internalType": "uint256",
              "name": "callGasLimit",
              "type": "uint256"
            },
            {
              "internalType": "uint256",
              "name": "verificationGasLimit",
              "type": "uint256"
            },
            {
              "internalType": "uint256",
              "name": "preVerificationGas",
              "type": "uint256"
            },
            {
              "internalType": "uint256",
              "name": "maxFeePerGas",
              "type": "uint256"
            },
            {
              "internalType": "uint256",
              "name": "maxPriorityFeePerGas",
              "type": "uint256"
            },
            {
              "internalType": "bytes",
              "name": "paymasterAndData",
              "type": "bytes"
            },
            {
              "internalType": "bytes",
              "name": "signature",
              "type": "bytes"
            }
          ],
          "internalType": "struct UserOperation",
          "name": "userOp",
          "type": "tuple"
        },
        {
          "internalType": "bytes32",
          "name": "userOpHash",
          "type": "bytes32"
        },
        {
          "internalType": "uint256",
          "name": "maxCost",
          "type": "uint256"
        }
      ],
      "name": "validatePaymasterUserOp",
      "outputs": [
        {
          "internalType": "bytes",
          "name": "context",
          "type": "bytes"
        },
        {
          "internalType": "uint256",
          "name": "validationData",
          "type": "uint256"
        }
      ],
      "stateMutability": "nonpayable",
      "type": "function"
    },
    {
      "inputs": [
        {
          "internalType": "address payable",
          "name": "withdrawAddress",
          "type": "address"
        }
      ],
      "name": "withdrawStake",
      "outputs": [],
      "stateMutability": "nonpayable",
      "type": "function"
    },
    {
      "inputs": [
        {
          "internalType": "address payable",
          "name": "withdrawAddress",
          "type": "address"
        },
        {
          "internalType": "uint256",
          "name": "amount",
          "type": "uint256"
        }
      ],
      "name": "withdrawTo",
      "outputs": [],
      "stateMutability": "nonpayable",
      "type": "function"
    }
  ],
  "bytecode": "0x60c060405234801562000010575f80fd5b5060405162001b9438038062001b9483398101604081905262000033916200031e565b81808262000041336200009e565b6001600160a01b031660805260046200005b83826200049e565b5060056200006a82826200049e565b5050506001600160a01b03831660a05262000087306001620000ed565b6200009530335f19620001b4565b5050506200058c565b5f80546001600160a01b038381166001600160a01b0319831681178455604051919092169283917f8be0079c531659141344cd1fd0a4f28419497f9722a3daafe3b4186f6b6457e09190a35050565b6001600160a01b038216620001495760405162461bcd60e51b815260206004820152601f60248201527f45524332303a206d696e7420746f20746865207a65726f20616464726573730060448201526064015b60405180910390fd5b8060035f8282546200015c919062000566565b90915550506001600160a01b0382165f818152600160209081526040808320805486019055518481527fddf252ad1be2c89b69c2b068fc378daa952ba7f163c4a11628f55a4df523b3ef910160405180910390a35050565b6001600160a01b038316620002185760405162461bcd60e51b8152602060048201526024808201527f45524332303a20617070726f76652066726f6d20746865207a65726f206164646044820152637265737360e01b606482015260840162000140565b6001600160a01b0382166200027b5760405162461bcd60e51b815260206004820152602260248201527f45524332303a20617070726f766520746f20746865207a65726f206164647265604482015261737360f01b606482015260840162000140565b6001600160a01b038381165f8181526002602090815260408083209487168084529482529182902085905590518481527f8c5be1e5ebec7d5bd14f71427d1e84f3dd0314c0f7b2291e5b200ac8c7c3b925910160405180910390a3505050565b505050565b6001600160a01b0381168114620002f5575f80fd5b50565b634e487b7160e01b5f52604160045260245ffd5b80516200031981620002e0565b919050565b5f805f6060848603121562000331575f80fd5b83516200033e81620002e0565b602085810151919450906001600160401b03808211156200035d575f80fd5b818701915087601f83011262000371575f80fd5b815181811115620003865762000386620002f8565b604051601f8201601f19908116603f01168101908382118183101715620003b157620003b1620002f8565b816040528281528a86848701011115620003c9575f80fd5b5f93505b82841015620003ec5784840186015181850187015292850192620003cd565b5f8684830101528097505050505050506200040a604085016200030c565b90509250925092565b600181811c908216806200042857607f821691505b6020821081036200044757634e487b7160e01b5f52602260045260245ffd5b50919050565b601f821115620002db575f81815260208120601f850160051c81016020861015620004755750805b601f850160051c820191505b81811015620004965782815560010162000481565b505050505050565b81516001600160401b03811115620004ba57620004ba620002f8565b620004d281620004cb845462000413565b846200044d565b602080601f83116001811462000508575f8415620004f05750858301515b5f19600386901b1c1916600185901b17855562000496565b5f85815260208120601f198616915b82811015620005385788860151825594840194600190910190840162000517565b50858210156200055657878501515f19600388901b60f8161c191681555b5050505050600190811b01905550565b808201808211156200058657634e487b7160e01b5f52601160045260245ffd5b92915050565b60805160a0516115ae620005e65f395f8181610335015261118501525f81816103c5015281816104e20152818161061e015281816107750152818161080401528181610875015281816109000152610dd901526115ae5ff3fe60806040526004361061017b575f3560e01c80639f5ca221116100cd578063c23a5cea11610087578063dd62ed3e11610062578063dd62ed3e14610436578063f0dda65c14610455578063f2fde38b14610474578063f465c77e14610493575f80fd5b8063c23a5cea146103fb578063c399ec881461041a578063d0e30db01461042e575f80fd5b80639f5ca22114610324578063a457c2d714610357578063a9059cbb14610376578063a9a2340914610395578063b0d691fe146103b4578063bb9fe6bf146103e7575f80fd5b8063313ce56711610138578063715018a611610113578063715018a6146102b7578063796d4371146102cb5780638da5cb5b146102e057806395d89b4114610310575f80fd5b8063313ce56714610249578063395093511461026457806370a0823114610283575f80fd5b80630396cb601461017f57806306fdde0314610194578063095ea7b3146101be57806318160ddd146101ed578063205c28781461020b57806323b872dd1461022a575b5f80fd5b61019261018d366004611201565b6104c0565b005b34801561019f575f80fd5b506101a8610547565b6040516101b5919061126e565b60405180910390f35b3480156101c9575f80fd5b506101dd6101d8366004611294565b6105d7565b60405190151581526020016101b5565b3480156101f8575f80fd5b506003545b6040519081526020016101b5565b348015610216575f80fd5b50610192610225366004611294565b6105f0565b348015610235575f80fd5b506101dd6102443660046112be565b61065f565b348015610254575f80fd5b50604051601281526020016101b5565b34801561026f575f80fd5b506101dd61027e366004611294565b610682565b34801561028e575f80fd5b506101fd61029d3660046112fc565b6001600160a01b03165f9081526001602052604090205490565b3480156102c2575f80fd5b506101926106a3565b3480156102d6575f80fd5b506101fd613a9881565b3480156102eb575f80fd5b505f546001600160a01b03165b6040516001600160a01b0390911681526020016101b5565b34801561031b575f80fd5b506101a86106b6565b34801561032f575f80fd5b506102f87f000000000000000000000000000000000000000000000000000000000000000081565b348015610362575f80fd5b506101dd610371366004611294565b6106c5565b348015610381575f80fd5b506101dd610390366004611294565b610744565b3480156103a0575f80fd5b506101926103af366004611317565b610751565b3480156103bf575f80fd5b506102f87f000000000000000000000000000000000000000000000000000000000000000081565b3480156103f2575f80fd5b5061019261076b565b348015610406575f80fd5b506101926104153660046112fc565b6107dd565b348015610425575f80fd5b506101fd61085e565b6101926108eb565b348015610441575f80fd5b506101fd61045036600461139e565b61094b565b348015610460575f80fd5b5061019261046f366004611294565b610975565b34801561047f575f80fd5b5061019261048e3660046112fc565b61098b565b34801561049e575f80fd5b506104b26104ad3660046113d5565b6109c6565b6040516101b5929190611424565b6104c86109e8565b604051621cb65b60e51b815263ffffffff821660048201527f00000000000000000000000000000000000000000000000000000000000000006001600160a01b031690630396cb609034906024015f604051808303818588803b15801561052d575f80fd5b505af115801561053f573d5f803e3d5ffd5b505050505050565b60606004805461055690611445565b80601f016020809104026020016040519081016040528092919081815260200182805461058290611445565b80156105cd5780601f106105a4576101008083540402835291602001916105cd565b820191905f5260205f20905b8154815290600101906020018083116105b057829003601f168201915b5050505050905090565b5f336105e4818585610a41565b60019150505b92915050565b6105f86109e8565b60405163040b850f60e31b81526001600160a01b038381166004830152602482018390527f0000000000000000000000000000000000000000000000000000000000000000169063205c2878906044015f604051808303815f87803b15801561052d575f80fd5b5f3361066c858285610b64565b610677858585610bd6565b506001949350505050565b5f336105e4818585610694838361094b565b61069e919061147d565b610a41565b6106ab6109e8565b6106b45f610d7f565b565b60606005805461055690611445565b5f33816106d2828661094b565b9050838110156107375760405162461bcd60e51b815260206004820152602560248201527f45524332303a2064656372656173656420616c6c6f77616e63652062656c6f77604482015264207a65726f60d81b60648201526084015b60405180910390fd5b6106778286868403610a41565b5f336105e4818585610bd6565b610759610dce565b61076584848484610e3e565b50505050565b6107736109e8565b7f00000000000000000000000000000000000000000000000000000000000000006001600160a01b031663bb9fe6bf6040518163ffffffff1660e01b81526004015f604051808303815f87803b1580156107cb575f80fd5b505af1158015610765573d5f803e3d5ffd5b6107e56109e8565b60405163611d2e7560e11b81526001600160a01b0382811660048301527f0000000000000000000000000000000000000000000000000000000000000000169063c23a5cea906024015f604051808303815f87803b158015610845575f80fd5b505af1158015610857573d5f803e3d5ffd5b5050505050565b6040516370a0823160e01b81523060048201525f907f00000000000000000000000000000000000000000000000000000000000000006001600160a01b0316906370a0823190602401602060405180830381865afa1580156108c2573d5f803e3d5ffd5b505050506040513d601f19601f820116820180604052508101906108e6919061149c565b905090565b60405163b760faf960e01b81523060048201527f00000000000000000000000000000000000000000000000000000000000000006001600160a01b03169063b760faf99034906024015f604051808303818588803b158015610845575f80fd5b6001600160a01b039182165f90815260026020908152604080832093909416825291909152205490565b61097d6109e8565b6109878282610e6f565b5050565b6109936109e8565b6109ae306109a85f546001600160a01b031690565b5f610a41565b6109b781610f2e565b6109c330825f19610a41565b50565b60605f6109d1610dce565b6109dc858585610fa4565b91509150935093915050565b5f546001600160a01b031633146106b45760405162461bcd60e51b815260206004820181905260248201527f4f776e61626c653a2063616c6c6572206973206e6f7420746865206f776e6572604482015260640161072e565b6001600160a01b038316610aa35760405162461bcd60e51b8152602060048201526024808201527f45524332303a20617070726f76652066726f6d20746865207a65726f206164646044820152637265737360e01b606482015260840161072e565b6001600160a01b038216610b045760405162461bcd60e51b815260206004820152602260248201527f45524332303a20617070726f766520746f20746865207a65726f206164647265604482015261737360f01b606482015260840161072e565b6001600160a01b038381165f8181526002602090815260408083209487168084529482529182902085905590518481527f8c5be1e5ebec7d5bd14f71427d1e84f3dd0314c0f7b2291e5b200ac8c7c3b925910160405180910390a3505050565b5f610b6f848461094b565b90505f1981146107655781811015610bc95760405162461bcd60e51b815260206004820152601d60248201527f45524332303a20696e73756666696369656e7420616c6c6f77616e6365000000604482015260640161072e565b6107658484848403610a41565b6001600160a01b038316610c3a5760405162461bcd60e51b815260206004820152602560248201527f45524332303a207472616e736665722066726f6d20746865207a65726f206164604482015264647265737360d81b606482015260840161072e565b6001600160a01b038216610c9c5760405162461bcd60e51b815260206004820152602360248201527f45524332303a207472616e7366657220746f20746865207a65726f206164647260448201526265737360e81b606482015260840161072e565b6001600160a01b0383165f9081526001602052604090205481811015610d135760405162461bcd60e51b815260206004820152602660248201527f45524332303a207472616e7366657220616d6f756e7420657863656564732062604482015265616c616e636560d01b606482015260840161072e565b6001600160a01b038085165f8181526001602052604080822086860390559286168082529083902080548601905591517fddf252ad1be2c89b69c2b068fc378daa952ba7f163c4a11628f55a4df523b3ef90610d729086815260200190565b60405180910390a3610765565b5f80546001600160a01b038381166001600160a01b0319831681178455604051919092169283917f8be0079c531659141344cd1fd0a4f28419497f9722a3daafe3b4186f6b6457e09190a35050565b336001600160a01b037f000000000000000000000000000000000000000000000000000000000000000016146106b45760405162461bcd60e51b815260206004820152601560248201527414d95b99195c881b9bdd08115b9d1c9e541bda5b9d605a1b604482015260640161072e565b5f610e4b838501856112fc565b90505f610e62610e5d613a988561147d565b611145565b905061053f823083610bd6565b6001600160a01b038216610ec55760405162461bcd60e51b815260206004820152601f60248201527f45524332303a206d696e7420746f20746865207a65726f206164647265737300604482015260640161072e565b8060035f828254610ed6919061147d565b90915550506001600160a01b0382165f818152600160209081526040808320805486019055518481527fddf252ad1be2c89b69c2b068fc378daa952ba7f163c4a11628f55a4df523b3ef910160405180910390a35050565b610f366109e8565b6001600160a01b038116610f9b5760405162461bcd60e51b815260206004820152602660248201527f4f776e61626c653a206e6577206f776e657220697320746865207a65726f206160448201526564647265737360d01b606482015260840161072e565b6109c381610d7f565b60605f80610fb184611145565b9050613a988660a00135116110175760405162461bcd60e51b815260206004820152602660248201527f546f6b656e5061796d61737465723a2067617320746f6f206c6f7720666f72206044820152650706f73744f760d41b606482015260840161072e565b61102460408701876114b3565b1590506110a85761103486611151565b8061104561029d60208901896112fc565b10156110a35760405162461bcd60e51b815260206004820152602760248201527f546f6b656e5061796d61737465723a206e6f2062616c616e636520287072652d6044820152666372656174652960c81b606482015260840161072e565b611107565b806110b961029d60208901896112fc565b10156111075760405162461bcd60e51b815260206004820152601a60248201527f546f6b656e5061796d61737465723a206e6f2062616c616e6365000000000000604482015260640161072e565b61111460208701876112fc565b604080516001600160a01b0390921660208301520160408051601f19818403018152919052965f9650945050505050565b5f6105ea6064836114fd565b5f61115f60408301836114b3565b61116d916014915f9161151c565b61117691611543565b60601c90506001600160a01b037f00000000000000000000000000000000000000000000000000000000000000001681146109875760405162461bcd60e51b815260206004820152602560248201527f546f6b656e5061796d61737465723a2077726f6e67206163636f756e7420666160448201526463746f727960d81b606482015260840161072e565b5f60208284031215611211575f80fd5b813563ffffffff81168114611224575f80fd5b9392505050565b5f81518084525f5b8181101561124f57602081850181015186830182015201611233565b505f602082860101526020601f19601f83011685010191505092915050565b602081525f611224602083018461122b565b6001600160a01b03811681146109c3575f80fd5b5f80604083850312156112a5575f80fd5b82356112b081611280565b946020939093013593505050565b5f805f606084860312156112d0575f80fd5b83356112db81611280565b925060208401356112eb81611280565b929592945050506040919091013590565b5f6020828403121561130c575f80fd5b813561122481611280565b5f805f806060858703121561132a575f80fd5b843560038110611338575f80fd5b9350602085013567ffffffffffffffff80821115611354575f80fd5b818701915087601f830112611367575f80fd5b813581811115611375575f80fd5b886020828501011115611386575f80fd5b95986020929092019750949560400135945092505050565b5f80604083850312156113af575f80fd5b82356113ba81611280565b915060208301356113ca81611280565b809150509250929050565b5f805f606084860312156113e7575f80fd5b833567ffffffffffffffff8111156113fd575f80fd5b8401610160818703121561140f575f80fd5b95602085013595506040909401359392505050565b604081525f611436604083018561122b565b90508260208301529392505050565b600181811c9082168061145957607f821691505b60208210810361147757634e487b7160e01b5f52602260045260245ffd5b50919050565b808201808211156105ea57634e487b7160e01b5f52601160045260245ffd5b5f602082840312156114ac575f80fd5b5051919050565b5f808335601e198436030181126114c8575f80fd5b83018035915067ffffffffffffffff8211156114e2575f80fd5b6020019150368190038213156114f6575f80fd5b9250929050565b5f8261151757634e487b7160e01b5f52601260045260245ffd5b500490565b5f808585111561152a575f80fd5b83861115611536575f80fd5b5050820193919092039150565b6bffffffffffffffffffffffff1981358181169160148510156115705780818660140360031b1b83161692505b50509291505056fea26469706673582212203b9bafd3166277d9450a314f683c5e4c4fe2e904f12a1864e04fa118d2abfd6e64736f6c63430008140033",
  "linkReferences": {},
  "deployedLinkReferences": {}
}