{
  "_format": "hh-sol-artifact-1",
  "contractName": "MessageSender",
  "sourceName": "contracts/MessageSender.sol",
  "abi": [
    {
      "anonymous": false,
      "inputs": [
        {
          "indexed": true,
          "internalType": "address",
          "name": "_addr",
          "type": "address"
        },
        {
          "indexed": false,
          "internalType": "string",
          "name": "_msg",
          "type": "string"
        }
      ],
      "name": "MsgSend",
      "type": "event"
    },
    {
      "inputs": [],
      "name": "getMessage",
      "outputs": [
        {
          "internalType": "string",
          "name": "",
          "type": "string"
        }
      ],
      "stateMutability": "view",
      "type": "function"
    },
    {
      "inputs": [],
      "name": "getMsgSender",
      "outputs": [
        {
          "internalType": "address",
          "name": "",
          "type": "address"
        }
      ],
      "stateMutability": "view",
      "type": "function"
    },
    {
      "inputs": [],
      "name": "msgSender",
      "outputs": [
        {
          "internalType": "address",
          "name": "",
          "type": "address"
        }
      ],
      "stateMutability": "view",
      "type": "function"
    },
    {
      "inputs": [
        {
          "internalType": "string",
          "name": "_msg",
          "type": "string"
        }
      ],
      "name": "setMessage",
      "outputs": [],
      "stateMutability": "nonpayable",
      "type": "function"
    }
  ],
  "bytecode": "0x608060405234801561000f575f80fd5b506104218061001d5f395ff3fe608060405234801561000f575f80fd5b506004361061004a575f3560e01c8063368b87721461004e5780637a6ce2e114610063578063ce6d41de1461008d578063d737d0c7146100a2575b5f80fd5b61006161005c3660046101b3565b6100b5565b005b6001546001600160a01b03165b6040516001600160a01b0390911681526020015b60405180910390f35b610095610110565b604051610084919061025e565b600154610070906001600160a01b031681565b5f6100c0828261032f565b50600180546001600160a01b031916339081179091556040517e38ae9f9c9bfeb50a4df18037e2eee236960ec57a3fab6f18af2c5985ca66529061010590849061025e565b60405180910390a250565b60605f805461011e906102a9565b80601f016020809104026020016040519081016040528092919081815260200182805461014a906102a9565b80156101955780601f1061016c57610100808354040283529160200191610195565b820191905f5260205f20905b81548152906001019060200180831161017857829003601f168201915b5050505050905090565b634e487b7160e01b5f52604160045260245ffd5b5f602082840312156101c3575f80fd5b813567ffffffffffffffff808211156101da575f80fd5b818401915084601f8301126101ed575f80fd5b8135818111156101ff576101ff61019f565b604051601f8201601f19908116603f011681019083821181831017156102275761022761019f565b8160405282815287602084870101111561023f575f80fd5b826020860160208301375f928101602001929092525095945050505050565b5f6020808352835180828501525f5b818110156102895785810183015185820160400152820161026d565b505f604082860101526040601f19601f8301168501019250505092915050565b600181811c908216806102bd57607f821691505b6020821081036102db57634e487b7160e01b5f52602260045260245ffd5b50919050565b601f82111561032a575f81815260208120601f850160051c810160208610156103075750805b601f850160051c820191505b8181101561032657828155600101610313565b5050505b505050565b815167ffffffffffffffff8111156103495761034961019f565b61035d8161035784546102a9565b846102e1565b602080601f831160018114610390575f84156103795750858301515b5f19600386901b1c1916600185901b178555610326565b5f85815260208120601f198616915b828110156103be5788860151825594840194600190910190840161039f565b50858210156103db57878501515f19600388901b60f8161c191681555b5050505050600190811b0190555056fea26469706673582212209bc1db01f7312b4cd8211a0f7d8839807e1cdc6fdb2704eecf38f02f16f2cc2264736f6c63430008140033",
  "linkReferences": {},
  "deployedLinkReferences": {}
}