{
  "_format": "hh-sol-artifact-1",
  "contractName": "SimpleAccount",
  "sourceName": "contracts/samples/SimpleAccount.sol",
  "abi": [
    {
      "inputs": [
        {
          "internalType": "contract IEntryPoint",
          "name": "anEntryPoint",
          "type": "address"
        }
      ],
      "stateMutability": "nonpayable",
      "type": "constructor"
    },
    {
      "anonymous": false,
      "inputs": [
        {
          "indexed": false,
          "internalType": "address",
          "name": "previousAdmin",
          "type": "address"
        },
        {
          "indexed": false,
          "internalType": "address",
          "name": "newAdmin",
          "type": "address"
        }
      ],
      "name": "AdminChanged",
      "type": "event"
    },
    {
      "anonymous": false,
      "inputs": [
        {
          "indexed": true,
          "internalType": "address",
          "name": "beacon",
          "type": "address"
        }
      ],
      "name": "BeaconUpgraded",
      "type": "event"
    },
    {
      "anonymous": false,
      "inputs": [
        {
          "indexed": false,
          "internalType": "uint8",
          "name": "version",
          "type": "uint8"
        }
      ],
      "name": "Initialized",
      "type": "event"
    },
    {
      "anonymous": false,
      "inputs": [
        {
          "indexed": true,
          "internalType": "contract IEntryPoint",
          "name": "entryPoint",
          "type": "address"
        },
        {
          "indexed": true,
          "internalType": "address",
          "name": "owner",
          "type": "address"
        }
      ],
      "name": "SimpleAccountInitialized",
      "type": "event"
    },
    {
      "anonymous": false,
      "inputs": [
        {
          "indexed": true,
          "internalType": "address",
          "name": "implementation",
          "type": "address"
        }
      ],
      "name": "Upgraded",
      "type": "event"
    },
    {
      "inputs": [],
      "name": "addDeposit",
      "outputs": [],
      "stateMutability": "payable",
      "type": "function"
    },
    {
      "inputs": [],
      "name": "entryPoint",
      "outputs": [
        {
          "internalType": "contract IEntryPoint",
          "name": "",
          "type": "address"
        }
      ],
      "stateMutability": "view",
      "type": "function"
    },
    {
      "inputs": [
        {
          "internalType": "address",
          "name": "dest",
          "type": "address"
        },
        {
          "internalType": "uint256",
          "name": "value",
          "type": "uint256"
        },
        {
          "internalType": "bytes",
          "name": "func",
          "type": "bytes"
        }
      ],
      "name": "execute",
      "outputs": [],
      "stateMutability": "nonpayable",
      "type": "function"
    },
    {
      "inputs": [
        {
          "internalType": "address[]",
          "name": "dest",
          "type": "address[]"
        },
        {
          "internalType": "uint256[]",
          "name": "value",
          "type": "uint256[]"
        },
        {
          "internalType": "bytes[]",
          "name": "func",
          "type": "bytes[]"
        }
      ],
      "name": "executeBatch",
      "outputs": [],
      "stateMutability": "nonpayable",
      "type": "function"
    },
    {
      "inputs": [],
      "name": "getDeposit",
      "outputs": [
        {
          "internalType": "uint256",
          "name": "",
          "type": "uint256"
        }
      ],
      "stateMutability": "view",
      "type": "function"
    },
    {
      "inputs": [],
      "name": "getNonce",
      "outputs": [
        {
          "internalType": "uint256",
          "name": "",
          "type": "uint256"
        }
      ],
      "stateMutability": "view",
      "type": "function"
    },
    {
      "inputs": [
        {
          "internalType": "address",
          "name": "anOwner",
          "type": "address"
        }
      ],
      "name": "initialize",
      "outputs": [],
      "stateMutability": "nonpayable",
      "type": "function"
    },
    {
      "inputs": [
        {
          "internalType": "address",
          "name": "",
          "type": "address"
        },
        {
          "internalType": "address",
          "name": "",
          "type": "address"
        },
        {
          "internalType": "uint256[]",
          "name": "",
          "type": "uint256[]"
        },
        {
          "internalType": "uint256[]",
          "name": "",
          "type": "uint256[]"
        },
        {
          "internalType": "bytes",
          "name": "",
          "type": "bytes"
        }
      ],
      "name": "onERC1155BatchReceived",
      "outputs": [
        {
          "internalType": "bytes4",
          "name": "",
          "type": "bytes4"
        }
      ],
      "stateMutability": "pure",
      "type": "function"
    },
    {
      "inputs": [
        {
          "internalType": "address",
          "name": "",
          "type": "address"
        },
        {
          "internalType": "address",
          "name": "",
          "type": "address"
        },
        {
          "internalType": "uint256",
          "name": "",
          "type": "uint256"
        },
        {
          "internalType": "uint256",
          "name": "",
          "type": "uint256"
        },
        {
          "internalType": "bytes",
          "name": "",
          "type": "bytes"
        }
      ],
      "name": "onERC1155Received",
      "outputs": [
        {
          "internalType": "bytes4",
          "name": "",
          "type": "bytes4"
        }
      ],
      "stateMutability": "pure",
      "type": "function"
    },
    {
      "inputs": [
        {
          "internalType": "address",
          "name": "",
          "type": "address"
        },
        {
          "internalType": "address",
          "name": "",
          "type": "address"
        },
        {
          "internalType": "uint256",
          "name": "",
          "type": "uint256"
        },
        {
          "internalType": "bytes",
          "name": "",
          "type": "bytes"
        }
      ],
      "name": "onERC721Received",
      "outputs": [
        {
          "internalType": "bytes4",
          "name": "",
          "type": "bytes4"
        }
      ],
      "stateMutability": "pure",
      "type": "function"
    },
    {
      "inputs": [],
      "name": "owner",
      "outputs": [
        {
          "internalType": "address",
          "name": "",
          "type": "address"
        }
      ],
      "stateMutability": "view",
      "type": "function"
    },
    {
      "inputs": [],
      "name": "proxiableUUID",
      "outputs": [
        {
          "internalType": "bytes32",
          "name": "",
          "type": "bytes32"
        }
      ],
      "stateMutability": "view",
      "type": "function"
    },
    {
      "inputs": [
        {
          "internalType": "bytes4",
          "name": "interfaceId",
          "type": "bytes4"
        }
      ],
      "name": "supportsInterface",
      "outputs": [
        {
          "internalType": "bool",
          "name": "",
          "type": "bool"
        }
      ],
      "stateMutability": "view",
      "type": "function"
    },
    {
      "inputs": [
        {
          "internalType": "address",
          "name": "",
          "type": "address"
        },
        {
          "internalType": "address",
          "name": "",
          "type": "address"
        },
        {
          "internalType": "address",
          "name": "",
          "type": "address"
        },
        {
          "internalType": "uint256",
          "name": "",
          "type": "uint256"
        },
        {
          "internalType": "bytes",
          "name": "",
          "type": "bytes"
        },
        {
          "internalType": "bytes",
          "name": "",
          "type": "bytes"
        }
      ],
      "name": "tokensReceived",
      "outputs": [],
      "stateMutability": "pure",
      "type": "function"
    },
    {
      "inputs": [
        {
          "internalType": "address",
          "name": "newImplementation",
          "type": "address"
        }
      ],
      "name": "upgradeTo",
      "outputs": [],
      "stateMutability": "nonpayable",
      "type": "function"
    },
    {
      "inputs": [
        {
          "internalType": "address",
          "name": "newImplementation",
          "type": "address"
        },
        {
          "internalType": "bytes",
          "name": "data",
          "type": "bytes"
        }
      ],
      "name": "upgradeToAndCall",
      "outputs": [],
      "stateMutability": "payable",
      "type": "function"
    },
    {
      "inputs": [
        {
          "components": [
            {
              "internalType": "address",
              "name": "sender",
              "type": "address"
            },
            {
              "internalType": "uint256",
              "name": "nonce",
              "type": "uint256"
            },
            {
              "internalType": "bytes",
              "name": "initCode",
              "type": "bytes"
            },
            {
              "internalType": "bytes",
              "name": "callData",
              "type": "bytes"
            },
            {
              "internalType": "uint256",
              "name": "callGasLimit",
              "type": "uint256"
            },
            {
              "internalType": "uint256",
              "name": "verificationGasLimit",
              "type": "uint256"
            },
            {
              "internalType": "uint256",
              "name": "preVerificationGas",
              "type": "uint256"
            },
            {
              "internalType": "uint256",
              "name": "maxFeePerGas",
              "type": "uint256"
            },
            {
              "internalType": "uint256",
              "name": "maxPriorityFeePerGas",
              "type": "uint256"
            },
            {
              "internalType": "bytes",
              "name": "paymasterAndData",
              "type": "bytes"
            },
            {
              "internalType": "bytes",
              "name": "signature",
              "type": "bytes"
            }
          ],
          "internalType": "struct UserOperation",
          "name": "userOp",
          "type": "tuple"
        },
        {
          "internalType": "bytes32",
          "name": "userOpHash",
          "type": "bytes32"
        },
        {
          "internalType": "uint256",
          "name": "missingAccountFunds",
          "type": "uint256"
        }
      ],
      "name": "validateUserOp",
      "outputs": [
        {
          "internalType": "uint256",
          "name": "validationData",
          "type": "uint256"
        }
      ],
      "stateMutability": "nonpayable",
      "type": "function"
    },
    {
      "inputs": [
        {
          "internalType": "address payable",
          "name": "withdrawAddress",
          "type": "address"
        },
        {
          "internalType": "uint256",
          "name": "amount",
          "type": "uint256"
        }
      ],
      "name": "withdrawDepositTo",
      "outputs": [],
      "stateMutability": "nonpayable",
      "type": "function"
    },
    {
      "stateMutability": "payable",
      "type": "receive"
    }
  ],
  "bytecode": "0x60c0346200016857601f6200233a38819003918201601f19168301916001600160401b038311848410176200016d578084926020946040528339810103126200016857516001600160a01b038116810362000168573060805260a05260005460ff8160081c16620001135760ff80821610620000d7575b6040516121b6908162000184823960805181818161044001528181610c410152610e1e015260a05181818161066201528181610913015281816109fc01528181610f9501528181611170015281816113bc01528181611c860152611ce50152f35b60ff90811916176000557f7f26b83ff96e1f2b6a682f133852f6798a09c465da95921460cefb3847402498602060405160ff8152a13862000076565b60405162461bcd60e51b815260206004820152602760248201527f496e697469616c697a61626c653a20636f6e747261637420697320696e697469604482015266616c697a696e6760c81b6064820152608490fd5b600080fd5b634e487b7160e01b600052604160045260246000fdfe6080604052600436101561001b575b361561001957600080fd5b005b60003560e01c806223de291461018257806301ffc9a714610179578063150b7a02146101705780633659cfe6146101675780633a871cdd1461015e57806347e1da2a146101555780634a58db191461014c5780634d44560d146101435780634f1ef2861461013a57806352d1902d146101315780638da5cb5b14610128578063b0d691fe1461011f578063b61d27f614610116578063bc197c811461010d578063c399ec8814610104578063c4d66de8146100fb578063d087d288146100f25763f23a6e610361000e576100ed611429565b61000e565b506100ed611339565b506100ed6111d5565b506100ed6110f6565b506100ed61102e565b506100ed610fb9565b506100ed610f49565b506100ed610ef3565b506100ed610dd7565b506100ed610bbf565b506100ed61099d565b506100ed6108d0565b506100ed61077f565b506100ed6105f7565b506100ed6103eb565b506100ed610359565b506100ed610268565b506100ed6101dc565b73ffffffffffffffffffffffffffffffffffffffff8116036101a957565b600080fd5b9181601f840112156101a95782359167ffffffffffffffff83116101a957602083818601950101116101a957565b50346101a95760c07ffffffffffffffffffffffffffffffffffffffffffffffffffffffffffffffffc3601126101a95761021760043561018b565b61022260243561018b565b61022d60443561018b565b67ffffffffffffffff6084358181116101a95761024e9036906004016101ae565b505060a4359081116101a9576100199036906004016101ae565b50346101a95760207ffffffffffffffffffffffffffffffffffffffffffffffffffffffffffffffffc3601126101a9576004357fffffffff0000000000000000000000000000000000000000000000000000000081168091036101a957807f150b7a02000000000000000000000000000000000000000000000000000000006020921490811561032f575b8115610305575b506040519015158152f35b7f01ffc9a700000000000000000000000000000000000000000000000000000000915014386102fa565b7f4e2312e000000000000000000000000000000000000000000000000000000000811491506102f3565b50346101a95760807ffffffffffffffffffffffffffffffffffffffffffffffffffffffffffffffffc3601126101a95761039460043561018b565b61039f60243561018b565b60643567ffffffffffffffff81116101a9576103bf9036906004016101ae565b505060206040517f150b7a02000000000000000000000000000000000000000000000000000000008152f35b50346101a95760207ffffffffffffffffffffffffffffffffffffffffffffffffffffffffffffffffc3601126101a9576004356104278161018b565b73ffffffffffffffffffffffffffffffffffffffff90817f0000000000000000000000000000000000000000000000000000000000000000169161046d833014156114bb565b61049c7f360894a13ba1a3210667c828492db98dca3e2076cc3735a920a3ca505d382bbc938285541614611546565b6104a46120ed565b604051906104b182610ac6565b600082527f4910fdfa16fed3260ed0e7147f7cc6da11a60208b5b9406d12a635614ffd91435460ff16156104eb5750506100199150611678565b6020600491604094939451928380927f52d1902d00000000000000000000000000000000000000000000000000000000825286165afa600091816105c7575b506105b4576040517f08c379a000000000000000000000000000000000000000000000000000000000815260206004820152602e60248201527f45524331393637557067726164653a206e657720696d706c656d656e7461746960448201527f6f6e206973206e6f7420555550530000000000000000000000000000000000006064820152608490fd5b610019936105c291146115ed565b611764565b6105e991925060203d81116105f0575b6105e18183610afe565b8101906115d1565b903861052a565b503d6105d7565b50346101a9577ffffffffffffffffffffffffffffffffffffffffffffffffffffffffffffffffc6060813601126101a9576004359067ffffffffffffffff82116101a9576101609082360301126101a95760443573ffffffffffffffffffffffffffffffffffffffff7f00000000000000000000000000000000000000000000000000000000000000001633036106f05761069b6106b39260243590600401611d86565b90806106b7575b506040519081529081906020820190565b0390f35b600080808093337ffffffffffffffffffffffffffffffffffffffffffffffffffffffffffffffffff1506106e96118a3565b50386106a2565b60646040517f08c379a000000000000000000000000000000000000000000000000000000000815260206004820152601c60248201527f6163636f756e743a206e6f742066726f6d20456e747279506f696e74000000006044820152fd5b9181601f840112156101a95782359167ffffffffffffffff83116101a9576020808501948460051b0101116101a957565b50346101a95760607ffffffffffffffffffffffffffffffffffffffffffffffffffffffffffffffffc3601126101a95767ffffffffffffffff6004358181116101a9576107d090369060040161074e565b6024929192358281116101a9576107eb90369060040161074e565b926044359081116101a95761080490369060040161074e565b93909161080f611ccd565b848414806108bf575b61082190611a02565b8161087357505060005b82811061083457005b8061086961084e61084961086e94878a611af3565b611b11565b61086361085c848988611b6c565b3691610b88565b906120ae565b611a67565b61082b565b91909460009493945b85811061088557005b8061086961089a6108496108ba948a87611af3565b6108a5838b89611af3565b356108b461085c858b8a611b6c565b916120d6565b61087c565b508115806108185750818514610818565b506000807ffffffffffffffffffffffffffffffffffffffffffffffffffffffffffffffffc36011261099a5773ffffffffffffffffffffffffffffffffffffffff7f00000000000000000000000000000000000000000000000000000000000000001681813b1561099a57602491604051928380927fb760faf900000000000000000000000000000000000000000000000000000000825230600483015234905af1801561098d575b610981575080f35b61098a90610aa5565b80f35b6109956115e0565b610979565b80fd5b50346101a957600060407ffffffffffffffffffffffffffffffffffffffffffffffffffffffffffffffffc36011261099a576004356109db8161018b565b6109e36120ed565b8173ffffffffffffffffffffffffffffffffffffffff807f00000000000000000000000000000000000000000000000000000000000000001692833b15610a71576044908360405195869485937f205c287800000000000000000000000000000000000000000000000000000000855216600484015260243560248401525af1801561098d57610981575080f35b8280fd5b507f4e487b7100000000000000000000000000000000000000000000000000000000600052604160045260246000fd5b67ffffffffffffffff8111610ab957604052565b610ac1610a75565b604052565b6020810190811067ffffffffffffffff821117610ab957604052565b6060810190811067ffffffffffffffff821117610ab957604052565b90601f7fffffffffffffffffffffffffffffffffffffffffffffffffffffffffffffffe0910116810190811067ffffffffffffffff821117610ab957604052565b7fffffffffffffffffffffffffffffffffffffffffffffffffffffffffffffffe0601f60209267ffffffffffffffff8111610b7b575b01160190565b610b83610a75565b610b75565b929192610b9482610b3f565b91610ba26040519384610afe565b8294818452818301116101a9578281602093846000960137010152565b5060407ffffffffffffffffffffffffffffffffffffffffffffffffffffffffffffffffc3601126101a957600435610bf68161018b565b60243567ffffffffffffffff81116101a957366023820112156101a957610c27903690602481600401359101610b88565b9073ffffffffffffffffffffffffffffffffffffffff91827f00000000000000000000000000000000000000000000000000000000000000001692610c6e843014156114bb565b610c9d7f360894a13ba1a3210667c828492db98dca3e2076cc3735a920a3ca505d382bbc948286541614611546565b610ca56120ed565b7f4910fdfa16fed3260ed0e7147f7cc6da11a60208b5b9406d12a635614ffd91435460ff1615610cdb5750506100199150611678565b6020600491604094939451928380927f52d1902d00000000000000000000000000000000000000000000000000000000825286165afa60009181610db7575b50610da4576040517f08c379a000000000000000000000000000000000000000000000000000000000815260206004820152602e60248201527f45524331393637557067726164653a206e657720696d706c656d656e7461746960448201527f6f6e206973206e6f7420555550530000000000000000000000000000000000006064820152608490fd5b61001993610db291146115ed565b611843565b610dd091925060203d81116105f0576105e18183610afe565b9038610d1a565b50346101a95760007ffffffffffffffffffffffffffffffffffffffffffffffffffffffffffffffffc3601126101a95773ffffffffffffffffffffffffffffffffffffffff7f0000000000000000000000000000000000000000000000000000000000000000163003610e6f576040517f360894a13ba1a3210667c828492db98dca3e2076cc3735a920a3ca505d382bbc8152602090f35b60846040517f08c379a000000000000000000000000000000000000000000000000000000000815260206004820152603860248201527f555550535570677261646561626c653a206d757374206e6f742062652063616c60448201527f6c6564207468726f7567682064656c656761746563616c6c00000000000000006064820152fd5b50346101a95760007ffffffffffffffffffffffffffffffffffffffffffffffffffffffffffffffffc3601126101a957602073ffffffffffffffffffffffffffffffffffffffff60005460101c16604051908152f35b50346101a95760007ffffffffffffffffffffffffffffffffffffffffffffffffffffffffffffffffc3601126101a957602060405173ffffffffffffffffffffffffffffffffffffffff7f0000000000000000000000000000000000000000000000000000000000000000168152f35b50346101a95760607ffffffffffffffffffffffffffffffffffffffffffffffffffffffffffffffffc3601126101a957600435610ff58161018b565b6044359067ffffffffffffffff82116101a95761102461101c6100199336906004016101ae565b61085c611ccd565b90602435906120d6565b50346101a95760a07ffffffffffffffffffffffffffffffffffffffffffffffffffffffffffffffffc3601126101a95761106960043561018b565b61107460243561018b565b67ffffffffffffffff6044358181116101a95761109590369060040161074e565b50506064358181116101a9576110af90369060040161074e565b50506084359081116101a9576110c99036906004016101ae565b50506040517fbc197c81000000000000000000000000000000000000000000000000000000008152602090f35b50346101a95760007ffffffffffffffffffffffffffffffffffffffffffffffffffffffffffffffffc3601126101a95760206040517f70a08231000000000000000000000000000000000000000000000000000000008152306004820152818160248173ffffffffffffffffffffffffffffffffffffffff7f0000000000000000000000000000000000000000000000000000000000000000165afa9081156111c8575b6000916111ab575b50604051908152f35b6111c29150823d81116105f0576105e18183610afe565b386111a2565b6111d06115e0565b61119a565b50346101a95760207ffffffffffffffffffffffffffffffffffffffffffffffffffffffffffffffffc3601126101a9576004356112118161018b565b6112736000549161123960ff8460081c16158094819561132b575b811561130b575b50611b96565b8261126a60017fffffffffffffffffffffffffffffffffffffffffffffffffffffffffffffff006000541617600055565b6112d557611c21565b61127957005b6112a67fffffffffffffffffffffffffffffffffffffffffffffffffffffffffffff00ff60005416600055565b604051600181527f7f26b83ff96e1f2b6a682f133852f6798a09c465da95921460cefb384740249890602090a1005b6113066101007fffffffffffffffffffffffffffffffffffffffffffffffffffffffffffff00ff6000541617600055565b611c21565b303b1591508161131d575b5038611233565b6001915060ff161438611316565b600160ff821610915061122c565b50346101a95760007ffffffffffffffffffffffffffffffffffffffffffffffffffffffffffffffffc3601126101a9576106b36040517f35567e1a0000000000000000000000000000000000000000000000000000000081523060048201526000602482015260208160448173ffffffffffffffffffffffffffffffffffffffff7f0000000000000000000000000000000000000000000000000000000000000000165afa90811561141c575b6000916113fe57506040519081529081906020820190565b611416915060203d81116105f0576105e18183610afe565b386106a2565b6114246115e0565b6113e6565b50346101a95760a07ffffffffffffffffffffffffffffffffffffffffffffffffffffffffffffffffc3601126101a95761146460043561018b565b61146f60243561018b565b60843567ffffffffffffffff81116101a95761148f9036906004016101ae565b505060206040517ff23a6e61000000000000000000000000000000000000000000000000000000008152f35b156114c257565b60846040517f08c379a000000000000000000000000000000000000000000000000000000000815260206004820152602c60248201527f46756e6374696f6e206d7573742062652063616c6c6564207468726f7567682060448201527f64656c656761746563616c6c00000000000000000000000000000000000000006064820152fd5b1561154d57565b60846040517f08c379a000000000000000000000000000000000000000000000000000000000815260206004820152602c60248201527f46756e6374696f6e206d7573742062652063616c6c6564207468726f7567682060448201527f6163746976652070726f787900000000000000000000000000000000000000006064820152fd5b908160209103126101a9575190565b506040513d6000823e3d90fd5b156115f457565b60846040517f08c379a000000000000000000000000000000000000000000000000000000000815260206004820152602960248201527f45524331393637557067726164653a20756e737570706f727465642070726f7860448201527f6961626c655555494400000000000000000000000000000000000000000000006064820152fd5b803b156116e05773ffffffffffffffffffffffffffffffffffffffff7f360894a13ba1a3210667c828492db98dca3e2076cc3735a920a3ca505d382bbc91167fffffffffffffffffffffffff0000000000000000000000000000000000000000825416179055565b60846040517f08c379a000000000000000000000000000000000000000000000000000000000815260206004820152602d60248201527f455243313936373a206e657720696d706c656d656e746174696f6e206973206e60448201527f6f74206120636f6e7472616374000000000000000000000000000000000000006064820152fd5b9061176e82611678565b73ffffffffffffffffffffffffffffffffffffffff82167fbc7cd75a20ee27fd9adebab32041f755214dbc6bffa90cc0225b39da2e5c2d3b600080a280511580159061183b575b6117bd575050565b61183891600080604051936117d185610ae2565b602785527f416464726573733a206c6f772d6c6576656c2064656c65676174652063616c6c60208601527f206661696c6564000000000000000000000000000000000000000000000000006040860152602081519101845af46118326118a3565b91611938565b50565b5060006117b5565b9061184d82611678565b73ffffffffffffffffffffffffffffffffffffffff82167fbc7cd75a20ee27fd9adebab32041f755214dbc6bffa90cc0225b39da2e5c2d3b600080a280511580159061189b576117bd575050565b5060016117b5565b3d156118ce573d906118b482610b3f565b916118c26040519384610afe565b82523d6000602084013e565b606090565b156118da57565b60646040517f08c379a000000000000000000000000000000000000000000000000000000000815260206004820152601d60248201527f416464726573733a2063616c6c20746f206e6f6e2d636f6e74726163740000006044820152fd5b9192901561195b575081511561194c575090565b611958903b15156118d3565b90565b82519091501561196e5750805190602001fd5b604051907f08c379a000000000000000000000000000000000000000000000000000000000825281602080600483015282519283602484015260005b8481106119eb575050507fffffffffffffffffffffffffffffffffffffffffffffffffffffffffffffffe0601f836000604480968601015201168101030190fd5b8181018301518682016044015285935082016119aa565b15611a0957565b60646040517f08c379a000000000000000000000000000000000000000000000000000000000815260206004820152601360248201527f77726f6e67206172726179206c656e67746873000000000000000000000000006044820152fd5b7fffffffffffffffffffffffffffffffffffffffffffffffffffffffffffffffff8114611a945760010190565b7f4e487b7100000000000000000000000000000000000000000000000000000000600052601160045260246000fd5b507f4e487b7100000000000000000000000000000000000000000000000000000000600052603260045260246000fd5b9190811015611b04575b60051b0190565b611b0c611ac3565b611afd565b356119588161018b565b9035907fffffffffffffffffffffffffffffffffffffffffffffffffffffffffffffffe1813603018212156101a9570180359067ffffffffffffffff82116101a9576020019181360383136101a957565b9091611b8592811015611b89575b60051b810190611b1b565b9091565b611b91611ac3565b611b7a565b15611b9d57565b60846040517f08c379a000000000000000000000000000000000000000000000000000000000815260206004820152602e60248201527f496e697469616c697a61626c653a20636f6e747261637420697320616c72656160448201527f647920696e697469616c697a65640000000000000000000000000000000000006064820152fd5b7fffffffffffffffffffff0000000000000000000000000000000000000000ffff75ffffffffffffffffffffffffffffffffffffffff00006000549260101b169116178060005573ffffffffffffffffffffffffffffffffffffffff809160101c16907f0000000000000000000000000000000000000000000000000000000000000000167f47e55c76e7a6f1fd8996a1da8008c1ea29699cca35e7bcd057f2dec313b6e5de600080a3565b73ffffffffffffffffffffffffffffffffffffffff807f0000000000000000000000000000000000000000000000000000000000000000163314908115611d75575b5015611d1757565b60646040517f08c379a000000000000000000000000000000000000000000000000000000000815260206004820152602060248201527f6163636f756e743a206e6f74204f776e6572206f7220456e747279506f696e746044820152fd5b905060005460101c16331438611d0f565b9060405160208101917f19457468657265756d205369676e6564204d6573736167653a0a3332000000008352603c820152603c8152611dc481610ae2565b519020611e0b611e0373ffffffffffffffffffffffffffffffffffffffff92611dfd61085c8560005460101c1696610140810190611b1b565b90611fdd565b919091611e54565b1603611e1657600090565b600190565b60051115611e2557565b7f4e487b7100000000000000000000000000000000000000000000000000000000600052602160045260246000fd5b611e5d81611e1b565b80611e655750565b611e6e81611e1b565b60018103611ed5576040517f08c379a000000000000000000000000000000000000000000000000000000000815260206004820152601860248201527f45434453413a20696e76616c6964207369676e617475726500000000000000006044820152606490fd5b611ede81611e1b565b60028103611f45576040517f08c379a000000000000000000000000000000000000000000000000000000000815260206004820152601f60248201527f45434453413a20696e76616c6964207369676e6174757265206c656e677468006044820152606490fd5b80611f51600392611e1b565b14611f5857565b6040517f08c379a000000000000000000000000000000000000000000000000000000000815260206004820152602260248201527f45434453413a20696e76616c6964207369676e6174757265202773272076616c60448201527f75650000000000000000000000000000000000000000000000000000000000006064820152608490fd5b90604181511460001461200757611b85916020820151906060604084015193015160001a90612011565b5050600090600290565b9291907f7fffffffffffffffffffffffffffffff5d576e7357a4501ddfe92f46681b20a083116120a25791608094939160ff602094604051948552168484015260408301526060820152600093849182805260015afa15612095575b815173ffffffffffffffffffffffffffffffffffffffff81161561208f579190565b50600190565b61209d6115e0565b61206d565b50505050600090600390565b600091829182602083519301915af16120c56118a3565b90156120ce5750565b602081519101fd5b916000928392602083519301915af16120c56118a3565b73ffffffffffffffffffffffffffffffffffffffff60005460101c1633148015612177575b1561211957565b60646040517f08c379a000000000000000000000000000000000000000000000000000000000815260206004820152600a60248201527f6f6e6c79206f776e6572000000000000000000000000000000000000000000006044820152fd5b5030331461211256fea264697066735822122073e1a9192c31a937fce845d1a663290fdbb0a4fb61e3920aa7268ab727d9beaf64736f6c63430008110033",
  "linkReferences": {},
  "deployedLinkReferences": {}
}